:020000040800F2
:1000000000500020495A0008D90B0008DD0B0008F9
:10001000E10B0008E50B0008E90B000800000000F8
:100020000000000000000000000000008136000811
:10003000ED0B00080000000021370008F10B00085C
:10004000915A0008915A0008915A0008915A0008E4
:10005000915A0008915A0008915A0008915A0008D4
:10006000915A0008915A0008915A0008915A0008C4
:10007000915A0008915A0008915A0008FD0B000897
:10008000915A0008915A0008915A0008915A0008A4
:10009000915A0008915A0008915A0008915A000894
:1000A000915A0008915A0008915A0008915A000884
:1000B000915A0008915A0008915A0008915A000874
:1000C000915A0008915A0008915A0008915A000864
:1000D000915A00080D0C0008915A0008915A000826
:1000E000915A0008915A0008915A00080000000037
:1000F0000000000000000000000000000000000000
:0C01000000000000000000005FF808F1A3
:1001100010B5054C237833B9044B13B10448AFF341
:1001200000800123237010BD180100200000000092
:100130005C640008084B10B51BB108490848AFF3D0
:1001400000800848036803B910BD074B002BFBD0A3
:10015000BDE81040184700BF000000001C0100204F
:100160005C6400081801002000000000034613F83A
:10017000012B002AFBD1181A0138704781F0004189
:1001800002E000BF83F0004330B54FEA41044FEA7C
:10019000430594EA050F08BF90EA020F1FBF54EA17
:1001A000000C55EA020C7FEA645C7FEA655C00F0B3
:1001B000E2804FEA5454D4EB5555B8BF6D420CDD84
:1001C0002C4480EA020281EA030382EA000083EA07
:1001D000010180EA020281EA0303362D88BF30BDA7
:1001E00011F0004F4FEA01314FF4801C4CEA1131FD
:1001F00002D0404261EB410113F0004F4FEA03335C
:100200004CEA133302D0524263EB430394EA050FE6
:1002100000F0A780A4F10104D5F1200E0DDB02FA55
:100220000EFC22FA05F2801841F1000103FA0EF2E9
:10023000801843FA05F359410EE0A5F120050EF1AF
:10024000200E012A03FA0EFC28BF4CF0020C43FAE0
:1002500005F3C01851EBE37101F0004507D54FF0ED
:10026000000EDCF1000C7EEB00006EEB0101B1F53D
:10027000801F1BD3B1F5001F0CD349085FEA300083
:100280004FEA3C0C04F101044FEA445212F5800F8E
:1002900080F09A80BCF1004F08BF5FEA500C50F12B
:1002A000000041EB045141EA050130BD5FEA4C0C0E
:1002B000404141EB010111F4801FA4F10104E9D197
:1002C00091F0000F04BF01460020B1FA81F308BF8E
:1002D0002033A3F10B03B3F120020CDA0C3208DD5A
:1002E00002F1140CC2F10C0201FA0CF021FA02F135
:1002F0000CE002F11402D8BFC2F1200C01FA02F1A5
:1003000020FA0CFCDCBF41EA0C019040E41AA2BFC9
:1003100001EB0451294330BD6FEA04041F3C1CDA91
:100320000C340EDC04F11404C4F1200220FA04F0B1
:1003300001FA02F340EA030021FA04F345EA03015B
:1003400030BDC4F10C04C4F1200220FA02F001FA1D
:1003500004F340EA0300294630BD21FA04F029469F
:1003600030BD94F0000F83F4801306BF81F4801138
:100370000134013D4EE77FEA645C18BF7FEA655CAB
:1003800029D094EA050F08BF90EA020F05D054EA7D
:10039000000C04BF1946104630BD91EA030F1EBF82
:1003A0000021002030BD5FEA545C05D14000494186
:1003B00028BF41F0004130BD14F580043CBF01F579
:1003C000801130BD01F0004545F0FE4141F470015F
:1003D0004FF0000030BD7FEA645C1ABF194610463A
:1003E0007FEA655C1CBF0B46024650EA013406BF3B
:1003F00052EA033591EA030F41F4002130BD00BFFA
:1004000090F0000F04BF0021704730B54FF48064B6
:1004100004F132044FF000054FF0000150E700BF37
:1004200090F0000F04BF0021704730B54FF4806496
:1004300004F1320410F0004548BF40424FF0000183
:100440003EE700BF42004FEAE2014FEA31014FEAC6
:1004500002701FBF12F07F4393F07F4F81F0605115
:10046000704792F0000F14BF93F07F4F704730B584
:100470004FF4607401F0004521F0004120E700BF17
:1004800050EA010208BF704730B54FF000050AE09E
:1004900050EA010208BF704730B511F0004502D59F
:1004A000404261EB41014FF4806404F132045FEAA1
:1004B000915C3FF4DCAE4FF003025FEADC0C18BF46
:1004C00003325FEADC0C18BF033202EBDC02C2F13C
:1004D000200300FA03FC20FA02F001FA03FE40EACE
:1004E0000E0021FA02F11444C1E600BF70B54FF0CE
:1004F000FF0C4CF4E06C1CEA11541DBF1CEA1355B0
:1005000094EA0C0F95EA0C0F00F0DEF82C4481EA17
:10051000030621EA4C5123EA4C5350EA013518BF37
:1005200052EA033541F4801143F4801338D0A0FB24
:1005300002CE4FF00005E1FB02E506F00042E0FBD1
:1005400003E54FF00006E1FB03569CF0000F18BFD7
:100550004EF0010EA4F1FF04B6F5007F64F540747F
:1005600004D25FEA4E0E6D4146EB060642EAC62112
:1005700041EA55514FEAC52040EA5E504FEACE2E7F
:10058000B4F1FD0C88BFBCF5E06F1ED8BEF1004F82
:1005900008BF5FEA500E50F1000041EB045170BDFE
:1005A00006F0004646EA010140EA020081EA030142
:1005B000B4EB5C04C2BFD4EB0C0541EA045170BD3E
:1005C00041F480114FF0000E013C00F3AB8014F1B8
:1005D000360FDEBF002001F0004170BDC4F1000401
:1005E000203C35DA0C341BDC04F11404C4F1200582
:1005F00000FA05F320FA04F001FA05F240EA0200DD
:1006000001F0004221F0004110EBD37021FA04F612
:1006100042EB06015EEA430E08BF20EAD37070BDCC
:10062000C4F10C04C4F1200500FA04F320FA05F02B
:1006300001FA04F240EA020001F0004110EBD3702D
:1006400041F100015EEA430E08BF20EAD37070BD9D
:10065000C4F1200500FA05F24EEA020E20FA04F376
:1006600001FA05F243EA020321FA04F001F0004125
:1006700021FA04F220EA020000EBD3705EEA430E96
:1006800008BF20EAD37070BD94F0000F0FD101F0C5
:100690000046400041EB010111F4801F08BF013CFE
:1006A000F7D041EA060195F0000F18BF704703F03C
:1006B0000046520043EB030313F4801F08BF013DC3
:1006C000F7D043EA0603704794EA0C0F0CEA13557F
:1006D00018BF95EA0C0F0CD050EA410618BF52EA39
:1006E0004306D1D181EA030101F000414FF000003F
:1006F00070BD50EA410606BF1046194652EA43064D
:1007000019D094EA0C0F02D150EA013613D195EAC0
:100710000C0F05D152EA03361CBF104619460AD108
:1007200081EA030101F0004141F0FE4141F4700112
:100730004FF0000070BD41F0FE4141F4780170BD02
:1007400070B54FF0FF0C4CF4E06C1CEA11541DBF67
:100750001CEA135594EA0C0F95EA0C0F00F0A7F869
:10076000A4EB050481EA030E52EA03354FEA013196
:1007700000F088804FEA03334FF0805545EA1313A9
:1007800043EA12634FEA022245EA111545EA106571
:100790004FEA00260EF000419D4208BF964244F108
:1007A000FD0404F5407402D25B084FEA3202B61A27
:1007B00065EB03055B084FEA32024FF480104FF4FB
:1007C000002CB6EB020E75EB030E22BFB61A75466F
:1007D00040EA0C005B084FEA3202B6EB020E75EB02
:1007E000030E22BFB61A754640EA5C005B084FEA6A
:1007F0003202B6EB020E75EB030E22BFB61A754637
:1008000040EA9C005B084FEA3202B6EB020E75EB41
:10081000030E22BFB61A754640EADC0055EA060E02
:1008200018D04FEA051545EA16754FEA06164FEA45
:10083000C30343EA52734FEAC2025FEA1C1CC0D1F1
:1008400011F4801F0BD141EA00014FF000004FF07E
:10085000004CB6E711F4801F04BF01430020B4F13F
:10086000FD0C88BFBCF5E06F3FF6AFAEB5EB030CF7
:1008700004BFB6EB020C5FEA500C50F1000041EBF4
:10088000045170BD0EF0004E4EEA113114EB5C04C1
:10089000C2BFD4EB0C0541EA045170BD41F4801194
:1008A0004FF0000E013C90E645EA060E8DE60CEA9C
:1008B000135594EA0C0F08BF95EA0C0F3FF43BAFB9
:1008C00094EA0C0F0AD150EA01347FF434AF95EA70
:1008D0000C0F7FF425AF104619462CE795EA0C0F54
:1008E00006D152EA03353FF4FDAE1046194622E721
:1008F00050EA410618BF52EA43067FF4C5AE50EAFB
:1009000041047FF40DAF52EA43057FF4EBAE12E7EA
:100910004FEA410212F5001215D211D56FF4787327
:10092000B3EB625212D94FEAC12343F0004343EACA
:10093000505311F0004F23FA02F018BF40427047A5
:100940004FF00000704750EA013005D111F000402F
:1009500008BF6FF0004070474FF00000704700BFC5
:100960004A0011D212F5001211D20DD56FF478732E
:10097000B3EB62520ED44FEAC12343F0004343EA83
:10098000505323FA02F070474FF00000704750EACE
:10099000013002D14FF0FF3070474FF00000704738
:1009A00030B591B02822002106A805F0A4F8002453
:1009B00001940294039404940594012206924FF446
:1009C000803307930A9202250D950E934FF4E0139E
:1009D0000F9306A800F080FD0F2301930295039466
:1009E0004FF4806304930594294601A800F0ACFFFE
:1009F00011B030BD08B501F0B9FB00F033FDFFF7D1
:100A0000CFFF00F00DF801F0FBFB00F06FF802F0F3
:100A100021FF01F015FC02F0A9FCFEE7704700BFC2
:100A20002DE9F04188B000240494059406940794BD
:100A30002A4B9A6942F010029A619A6902F01002F8
:100A40000092009A9A6942F020029A619A6902F033
:100A500020020192019A9A6942F004029A619A690D
:100A600002F004020292029A9A6942F008029A6124
:100A70009B6903F008030393039BDFF86C80224615
:100A80004FF40051404601F04DF9154D22464FF408
:100A90008071284601F046F94FF400530493012772
:100AA000059706940226079604A9404601F046F8E9
:100AB0004FF4E04304930594069404A9094801F017
:100AC0003DF84FF48073049305970694079604A9A4
:100AD000284601F033F808B0BDE8F081001002406C
:100AE00000080140000C01400010014008B50A4810
:100AF0000A4B03604FF4E133436000238360C3601B
:100B000003610C2242618361C36100F015FA08B1F0
:100B1000FFF784FF08BD00BF981100200038014096
:100B200070B586B000230293039304930593026883
:100B3000254B9A4245D1044603F558439A6942F43D
:100B400080429A619A6902F480420092009A9A69FE
:100B500042F004029A619B6903F004030193019B34
:100B60004FF4007302930223039303230593174E5C
:100B700002A9304600F0E2FF4FF4806302930025A3
:100B80000395049502A9304600F0D8FF1048114B98
:100B90000360456085608023C360056145618561B0
:100BA000C56101F0DFF808B1FFF738FF084B636358
:100BB0005C6200220521252001F05EFA252001F06B
:100BC0008DFA06B070BD00BF00380140000801403A
:100BD0005411002058000240704700BFFEE700BFDC
:100BE000FEE700BFFEE700BFFEE700BF704700BFA3
:100BF00008B500F049FC02F0E1FB08BD08B5024869
:100C000001F086F908BD00BF5411002008B5034863
:100C100003F048FC024800F069FB08BD38120020D0
:100C20009811002000B583B0114B9A6942F001027F
:100C30009A619A6902F001020092009ADA6942F020
:100C40008052DA61DB6903F080530193019B00223B
:100C50000F216FF0010001F00FFA064A536823F0EC
:100C6000E06343F00073536003B05DF804FB00BF22
:100C700000100240000001400268D36823F0C00366
:100C8000D360202380F83930704700BF0268D368F2
:100C900023F49073D3600268536923F00103536116
:100CA000202380F83A30704790F83930DBB2212B9E
:100CB0002BD18368B3F5805F0FD1036A02681B886C
:100CC000C3F30803536003691BB9036A0233036269
:100CD00009E0036A0133036205E00268036A591CF4
:100CE00001621B785360C38C9BB2013B9BB2C384EF
:100CF0006BB90268D36823F08003D3600268D368BD
:100D000043F04003D360002070470220704700206A
:100D1000704700BF2DE9F843814601680B6923F451
:100D20004052C36813430B618168036919434369E7
:100D300019430068C26822F4B05323F00C030B433C
:100D4000C360D9F800104B6923F44072D9F8183009
:100D500013434B61D9F800505B4B9D4259D100F0D1
:100D6000DDFE00EB800000EB8000D9F80440A40019
:100D7000B0FBF4F4554EA6FB04346409240100F0E2
:100D8000CDFE00EB800000EB8000D9F804309B0022
:100D9000B0FBF3F700F0C2FE00EB800000EB800038
:100DA000D9F804309B00B0FBF3F3A6FB03235B09E7
:100DB0004FF0640808FB13731B013233A6FB0323B7
:100DC0005B0903F0F0031C4400F0A8FE00EB800078
:100DD00000EB8000D9F804309B00B0FBF3F700F083
:100DE0009DFE00EB800000EB8000D9F804309B00F2
:100DF000B0FBF3F3A6FB03235B0908FB13731B0192
:100E00003233A6FB0323C3F343131C44AC60BDE899
:100E1000F88300F073FE00EB800000EB8000D9F84F
:100E20000440A400B0FBF4F4284EA6FB043464098B
:100E3000240100F063FE00EB800000EB8000D9F895
:100E400004309B00B0FBF3F700F058FE00EB80008D
:100E500000EB8000D9F804309B00B0FBF3F3A6FB55
:100E600003235B094FF0640808FB13731B01323343
:100E7000A6FB03235B0903F0F0031C4400F03EFED5
:100E800000EB800000EB8000D9F804309B00B0FB41
:100E9000F3F700F033FE00EB800000EB8000D9F8A0
:100EA00004309B00B0FBF3F3A6FB03235B0908FBB4
:100EB00013731B013233A6FB0323C3F343131C44F8
:100EC000AC60BDE8F88300BF003801401F85EB51DE
:100ED0002DE9F04105460F4616469846069C1EE051
:100EE000B4F1FF3F1BD02CB100F0DAFAC8EB0000E0
:100EF000844214D22A68D36823F4D073D3602A685A
:100F0000536923F001035361202385F8393085F8B4
:100F10003A30002385F838300320BDE8F0812B6893
:100F20001B6837EA03030CBF01230023B342D7D069
:100F30000020BDE8F08100BF68B310B5044690F80A
:100F4000393013F0FF0F04D1002380F83830FFF759
:100F5000E7FD242384F839302268D36823F4005352
:100F6000D3602046FFF7D6FE2268136923F490432E
:100F700013612268536923F02A0353612268D368FE
:100F800043F40053D3600020E063202384F8393019
:100F900084F83A3010BD0120704700BF2DE9F041C0
:100FA00082B01E4690F83930DBB2202B56D1044671
:100FB0000D469046002953D0002A53D090F838307F
:100FC000012B51D0012380F838300023C363212343
:100FD00080F8393000F064FA0746A4F82480A4F8B9
:100FE000268027E0E38C9BB2013B9BB2E384A3689D
:100FF000B3F5805F12D100963B4600228021204647
:10100000FFF766FF90BB22682B88C3F30803536089
:1010100023690BB902350DE001350BE000963B4624
:10102000002280212046FFF753FF08BB23682A785F
:101030005A600135E38C9BB2002BD3D100963B461E
:10104000002240212046FFF743FF034690B92022AB
:1010500084F83920002284F838200CE002230AE0CA
:10106000012308E0012306E0022304E0032302E059
:10107000032300E00323184602B0BDE8F08100BF5F
:1010800030B583B090F83A40E4B2202C3DD100292D
:101090003DD0002A3DD090F83830012B3BD013468C
:1010A0000A460446012180F83810826283850025B3
:1010B000C563222180F83A10416B18488862616B41
:1010C0001748C862616B17480863616B4D632168FC
:1010D0000431606B00F07EFE019523681A6801926E
:1010E0005A680192019A84F83850DA6842F48072A2
:1010F000DA602268536943F001035361226853693F
:1011000043F040035361284606E0022004E001203A
:1011100002E0012000E0022003B030BDA911000868
:101120008D1200089D12000810B5044601684B6935
:1011300003F0800290F83930DBB2212B0BD152B191
:101140004B6923F080034B61006B08B100F07CFE1B
:101150002046FFF791FD21684B6903F0400294F8A7
:101160003A30DBB2222B0BD152B14B6923F0400352
:101170004B61606B08B100F067FE2046FFF786FD0B
:10118000002010BD704700BF08B50168CB6823F090
:101190004003CB60202380F83930FFF7F3FF0020B5
:1011A00008BD00BF704700BF08B5436A02681268F7
:1011B00012F0200F13D10022DA851968CA6822F4D0
:1011C0008072CA6019684A6922F001024A6119688E
:1011D0004A6922F040024A61202283F83A201846E8
:1011E000FFF7E0FF08BD00BF08B590F83A30DBB26A
:1011F000222B44D18368B3F5805F13D1826A0369DF
:1012000043B903685B68C3F308031380836A02333E
:10121000836218E003685B68DBB21380836A013382
:10122000836210E0036933B9836A5A1C82620268E0
:1012300052681A7007E0826A531C836203685B6815
:1012400003F07F031370C38D9BB2013B9BB2C38538
:10125000BBB90268D36823F02003D3600268D36867
:1012600023F48073D3600268536923F00103536150
:10127000202380F83A30FFF795FF002008BD0220B8
:1012800008BD002008BD00BF704700BF08B5406A18
:10129000FFF7FAFF08BD00BF704700BF10B5446AF2
:1012A00023685B6903F0800294F83930DBB2212BAC
:1012B00005D122B10023E3842046FFF7DDFC23683B
:1012C0005B6903F0400294F83A30DBB2222B05D17F
:1012D00022B10023E3852046FFF7D8FCE36B43F0FF
:1012E0001003E3632046FFF7D7FF10BD10B5044697
:1012F00002681368D168526913F00F0009D113F026
:10130000200F06D011F0200F03D02046FFF76CFF0E
:1013100010BD002862D012F0010202D111F4907FBA
:101320005CD013F0010F06D011F4807F03D0E06B86
:1013300040F00100E06313F0040F04D01AB1E06B39
:1013400040F00200E06313F0020F04D01AB1E06B2A
:1013500040F00400E06313F0080F04D01AB1E26B10
:1013600042F00802E263E26B002A4AD013F0200F39
:1013700005D011F0200F02D02046FFF735FF23687B
:101380005B6903F04003E26B12F0080F00D1FBB180
:101390002046FFF77BFC23685A6912F0400F13D0F8
:1013A0005A6922F040025A61636B4BB1154A5A6385
:1013B000606B00F061FD20B3606B436B984710BD1C
:1013C0002046FFF769FF10BD2046FFF765FF10BDFF
:1013D0002046FFF761FF0023E36310BD13F0800F89
:1013E00006D011F0800F03D02046FFF75DFC10BD42
:1013F00013F0400F05D011F0400F02D02046FFF748
:10140000C3FE10BD0914000808B5406A0023C38557
:10141000C384FFF741FF08BD10B504460E4B187892
:101420004FF47A73B3FBF0F30C4A1068B0FBF3F09F
:1014300000F060FE58B90F2C0BD8002221464FF067
:10144000FF3000F019FE064B1C60002010BD01208B
:1014500010BD012010BD00BF0400002008000020C6
:101460000000002008B5074A136843F0100313601A
:10147000032000F0EFFD0F20FFF7CEFFFFF7D2FBB8
:10148000002008BD00200240034A13680349097880
:101490000B441360704700BFD811002004000020E7
:1014A000014B1868704700BFD811002082B0084B6C
:1014B0001B68084AA2FB03235B0A00FB03F00190B0
:1014C00000BF019B5A1E0192002BF9D102B0704758
:1014D00008000020D34D621070B582B00446036846
:1014E00013F0010F6BD0A84B5B6803F00C03042BC7
:1014F0000AD0A54B5B6803F00C03082B0DD1A24B5F
:101500005B6813F4803F08D09F4B1B6813F4003FC7
:1015100055D06368002B52D1B8E16368B3F5803FC2
:1015200005D1994A136843F48033136026E063B908
:1015300003F1804303F504331A6822F480321A6001
:101540001A6822F480221A6018E0B3F5A02F0CD19B
:1015500003F18043A3F53C331A6842F480221A60F9
:101560001A6842F480321A6008E0874B1A6822F445
:1015700080321A601A6822F480221A6063687BB194
:10158000FFF78EFF054605E0FFF78AFF401B642842
:1015900000F27E817C4B1B6813F4003FF4D00EE018
:1015A000FFF77EFF054605E0FFF77AFF401B642842
:1015B00000F27081744B1B6813F4003FF4D1236870
:1015C00013F0020F50D0704B5B6813F00C0F0AD071
:1015D0006D4B5B6803F00C03082B16D16A4B5B68FC
:1015E00013F4803F11D1684B1B6813F0020F03D036
:1015F0002369012B40F05081634A136823F0F803FC
:10160000616943EAC10313602EE02369D3B101226B
:101610005E4B1A60FFF744FF054605E0FFF740FF09
:10162000401B022800F23A81574B1B6813F0020F4F
:10163000F4D0554A136823F0F803616943EAC10303
:10164000136011E00022514B1A60FFF729FF054695
:1016500005E0FFF725FF401B022800F221814A4BDD
:101660001B6813F0020FF4D1236813F0080F29D080
:10167000A369ABB10122464B1A60FFF711FF054683
:1016800005E0FFF70DFF401B022800F20B813E4BE7
:101690005B6A13F0020FF4D00120FFF707FF11E09F
:1016A00000223B4B1A60FFF7FBFE054605E0FFF703
:1016B000F7FE401B022800F2F780334B5B6A13F001
:1016C000020FF4D1236813F0040F00F089802E4B31
:1016D000DB6913F0805F0BD12B4BDA6942F080524B
:1016E000DA61DB6903F080530193019B012500E07F
:1016F0000025284B1B6813F4807F13D1254A1368FB
:1017000043F480731360FFF7CBFE064605E0FFF756
:10171000C7FE801B642800F2C9801E4B1B6813F4AF
:10172000807FF4D0E368012B05D1174A136A43F098
:101730000103136222E063B903F1804303F504332C
:101740001A6A22F001021A621A6A22F004021A626C
:1017500014E0052B09D10C4B1A6A42F004021A62FC
:101760001A6A42F001021A6208E0074B1A6A22F074
:1017700001021A621A6A22F004021A62E368CBB10B
:10178000FFF78EFE06460FE00010024000004242C6
:101790008004424200700040FFF782FE801B41F24D
:1017A0008833984200F28480494B1B6A13F0020F81
:1017B000F2D00FE0FFF774FE064606E0FFF770FE7A
:1017C000801B41F28833984274D8414B1B6A13F056
:1017D000020FF3D125B13E4AD36923F08053D36180
:1017E000E369002B68D03A4A526802F00C02082ADA
:1017F00064D0022B37D10022364B1A60FFF750FE1F
:10180000054604E0FFF74CFE401B022858D8304B39
:101810001B6813F0007FF5D1236AB3F5803F06D132
:101820002B494B6823F40032A36813434B602848CC
:10183000436823F47411236A626A13430B434360C1
:101840000122244B1A60FFF72BFE044604E0FFF749
:1018500027FE001B022835D81D4B1B6813F0007FA4
:10186000F5D0002031E000221A4B1A60FFF718FE75
:10187000044604E0FFF714FE001B022824D8144B92
:101880001B6813F0007FF5D100201EE001201CE052
:1018900003201AE0032018E0012016E0032014E0E2
:1018A000032012E0032010E003200EE003200CE0F0
:1018B00003200AE0032008E0002006E0012004E005
:1018C000032002E0032000E0032002B070BD00BF4F
:1018D000001002406000424230B486B0164D02ACA7
:1018E00028686968AA68EB680FC42B8AADF80430D1
:1018F000124B5B6803F00C02082A19D1C3F3834230
:1019000006A90A4412F8100C13F4803F0CD00B4BBC
:101910005B68C3F340430B4413F8142C084B03FBE0
:1019200000F0B0FBF2F004E0064B03FB00F000E037
:10193000034806B030BC70477464000800100240D1
:1019400000127A0000093D0070B5654B1B6803F07A
:1019500007038B420BD2624A136823F007030B4341
:101960001360136803F00703994240F0A8800368EE
:1019700013F0020F17D013F0040F04D0594A536824
:1019800043F4E0635360036813F0080F04D0554A32
:10199000536843F460535360524C636823F0F00281
:1019A0008368134363600D460446036813F0010F18
:1019B0004DD04268012A05D14A4B1B6813F4003F01
:1019C0000DD17EE0022A05D1464B1B6813F0007F43
:1019D00005D178E0434B1B6813F0020F75D04149E5
:1019E0004B6823F0030313434B60FFF759FD064692
:1019F0006368012B0ED106E0FFF752FD801B41F218
:101A00008833984263D8374B5B6803F00C03042B90
:101A1000F2D11CE0022B15D106E0FFF741FD801B3F
:101A200041F28833984254D82E4B5B6803F00C0384
:101A3000082BF2D10BE0FFF733FD801B41F2883316
:101A4000984248D8274B5B6813F00C0FF3D1244B16
:101A50001B6803F007039D420AD2214A136823F052
:101A600007032B431360136803F007039D4234D12F
:101A7000236813F0040F06D01A494B6823F4E06280
:101A8000E36813434B60236813F0080F07D0154A2F
:101A9000536823F46053216943EAC1035360FFF79D
:101AA0001BFF104B5B68C3F303130F4AD35CD84092
:101AB0000E4B18600F20FFF7AFFC002070BD012017
:101AC00070BD012070BD012070BD012070BD0320DC
:101AD00070BD032070BD032070BD012070BD00BF2C
:101AE00000200240001002409C6400080800002012
:101AF000014B1868704700BF0800002008B5FFF7C9
:101B0000F7FF044B5B68C3F30223034AD35CD8405E
:101B100008BD00BF00100240AC64000808B5FFF724
:101B2000E7FF044B5B68C3F3C223034AD35CD8408E
:101B300008BD00BF00100240AC640008F0B583B0DF
:101B400000263446D5E00122A2400B6813409A4299
:101B500040F0CE804D68122D2DD00BD8022D27D00D
:101B600003D85DB3012D1ED035E0032D30D0112DEB
:101B70001BD030E0614FBD4220D008D8A7F58017B8
:101B8000BD421BD007F58037BD4224D116E05C4F23
:101B9000BD4213D007F58037BD420FD0A7F580179F
:101BA000BD4218D10AE0CE6815E0CE68043612E0D6
:101BB000CE6808360FE0CE680C360CE08D684DB16B
:101BC000012D02D10261082605E04261082602E0EB
:101BD000002600E00426FF2B01D8864601E000F134
:101BE000040EFF2B01D8A20002E0A4F1080292002B
:101BF000DEF800700F25954027EA050506FA02F287
:101C00002A43CEF800204A6812F0805F70D03D4A27
:101C1000956945F001059561926902F00102019212
:101C2000019AA708BD1C384A52F8255004F0030257
:101C300092004FF00F0E0EFA02FE25EA0E0E334D03
:101C4000A8420DD005F58065A8420BD005F580654A
:101C5000A84209D005F58065A84207D1032506E012
:101C6000002504E0012502E0022500E0042505FA34
:101C700002F24EEA02020237234D45F827204A6855
:101C800012F4803F05D005F580652A681A432A6062
:101C900004E01F4D2A6822EA03022A604A6812F40F
:101CA000003F04D01A4D6A681A436A6004E0184D78
:101CB0006A6822EA03026A604A6812F4801F04D04C
:101CC000134DAA681A43AA6004E0114DAA6822EADB
:101CD0000302AA604A6812F4001F04D00C4DEA689F
:101CE0001343EB6004E00A4DEA6822EA0303EB6069
:101CF00001340F2C7FF627AF03B0F0BD0000211098
:101D000000003110001002400000014000080140B6
:101D1000000401408368194201D00120704700206F
:101D2000704700BF0AB10161704709040161704743
:101D3000C3685940C160704770B4C56B066C01241C
:101D4000B4406C60046863604368102B04D103687E
:101D50009A600368D96003E0036899600368DA60F9
:101D600070BC704758B310B403460068164A02446A
:101D70001649A1FB0212120992001A64144ADA638E
:101D8000022283F82120026822F47F5121F03001E1
:101D90005C689A681443DA6814431A6914435A69F0
:101DA00014439A691443DA6922430A43026000200B
:101DB0009863012283F8212083F8200001E00120AC
:101DC000704710BC704700BFF8FFFDBFCDCCCCCC36
:101DD0000000024038B590F82040012C32D0012498
:101DE00080F8204090F82140012C26D104460220A2
:101DF00084F821000020A0632568286820F00100F5
:101E000028602046FFF798FFE36A2BB12268136829
:101E100043F00E03136009E02268136823F0040303
:101E200013602268136843F00A0313602268136882
:101E300043F001031360002038BD002380F82030F8
:101E4000022038BD022038BD034601680A6822F02E
:101E50000E020A6001680A6822F001020A60C06B83
:101E60001A6C012101FA02F2426083F8211000206D
:101E700083F82000704700BF08B590F82130022B8E
:101E800003D004238363012008BD0268136823F094
:101E90000E0313600268136823F0010313600368E4
:101EA000194A934211D01432934210D01432934203
:101EB0000FD0143293420FD0143293420FD0143209
:101EC00093420FD14FF480120EE001220CE0102259
:101ED0000AE04FF4807207E04FF4805204E04FF4C0
:101EE000803201E04FF08072084B5A60012380F885
:101EF0002130002380F82030436B13B19847002035
:101F000008BD002008BD00BF0800024000000240DC
:101F100038B5C36B1A6804682568016C04238B40CC
:101F20001A4236D015F0040F33D0236813F0200F77
:101F300003D1236823F0040323600368434A9342D8
:101F400011D01432934210D0143293420FD0143275
:101F500093420FD0143293420FD0143293420FD1D8
:101F60004FF480020EE004220CE040220AE04FF41D
:101F7000806207E04FF4804204E04FF4802201E0E9
:101F80004FF08062324B5A60C36A002B5CD0984796
:101F900038BD02238B401A423BD015F0020F38D0D7
:101FA000236813F0200F06D1236823F00A0323606F
:101FB000012380F821300368244A934211D014325F
:101FC000934210D0143293420FD0143293420FD068
:101FD000143293420FD0143293420FD14FF40012B7
:101FE0000EE002220CE020220AE04FF4007207E02B
:101FF0004FF4005204E04FF4003201E04FF0007261
:10200000134B5A60002380F82030836AE3B198476D
:1020100038BD082303FA01F10A4215D015F0080F64
:1020200012D0236823F00E032360C16B026C0123DE
:1020300003FA02F24A60836380F82130002380F8BB
:102040002030036B03B1984738BD00BF0800024041
:1020500000000240074AD36823F4E0631B041B0C12
:10206000000200F4E060184340F0BF6040F400302C
:10207000D060704700ED00E030B4164BDB68C3F36E
:102080000223C3F10704042C28BF04241D1D062DC0
:1020900001D9DD1E00E00025012303FA04F4013C10
:1020A0002140A940AB40013B1A400A43002806DA10
:1020B00000F00F001201D2B2074B1A5407E01201D0
:1020C000D2B200F1604000F5614080F8002330BCDE
:1020D000704700BF00ED00E014ED00E0420900F0A1
:1020E0001F00012303FA00F0014B43F82200704760
:1020F00000E100E00138B0F1807F0AD2064B586061
:10210000F021064A82F823100020986007221A6006
:1021100070470120704700BF10E000E000ED00E0D4
:102120000F4B1A6842F001021A6059680D4A0A40C2
:102130005A601A6822F0847222F480321A601A6897
:1021400022F480221A605A6822F4FE025A604FF488
:102150001F029A604FF00062034B9A60704700BF05
:10216000001002400000FFF800ED00E01F4B5B682C
:1021700003F00C03042B06D0082B08D03BBB1C4AF1
:102180001C4B1A6026E01A4A1A4B1A6022E0174AC2
:1021900053685268C3F38343023312F4803F05D17E
:1021A000154A02FB03F3134A136013E00F4A526807
:1021B00012F4003F05D0104A02FB03F30D4A1360EE
:1021C00008E00B4A02FB03F30A4A136002E0084AE4
:1021D000084B1A60054B5B68C3F30313074AD15CD5
:1021E000044A1368CB401360704700BF00100240E0
:1021F00000127A000800002000093D009C640008DD
:1022000000B583B00A4B5A6942F001025A615B691A
:1022100003F001030193019B002205210F20FFF72A
:102220002BFF0F20FFF75AFF03B05DF804FB00BF40
:102230000010024008B5012001F0B8F8FBE700BF2C
:1022400030B589B003AC0B4D0FCD0FC42B682360A4
:10225000002103A801F090F8074B186000230193B8
:102260000822009280220549054800F04FFC09B081
:1022700030BD00BF88640008DC110020B464000891
:10228000E159000800F1080343604FF0FF3282601B
:10229000C360036100230360704700BF0023036134
:1022A000704700BF43684B609A688A609A685160C3
:1022B00099600861036801330360704730B40D68AA
:1022C000B5F1FF3F01D1026907E000F1080200E02B
:1022D0001A4653681C68A542FAD253684B6099604D
:1022E0008A605160086103680133036030BC704745
:1022F00003694268816891608268416851605A68E8
:10230000904201D182685A60002202611868013847
:102310001860704710B5044601F0C4F9A26BE36B76
:102320009A4201D1012400E0002401F0DDF92046A9
:1023300010BD00BF10B5044601F0B4F9A36B0BB992
:10234000012400E0002401F0CFF9204610BD00BFB9
:1023500070B504461646856B026C3AB9036843BBF8
:10236000406800F095FF0023636029E06EB9806843
:1023700003F0B6FBA268236C1344A3606268934227
:1023800019D32368A36000201AE0C06803F0A8FBFB
:10239000236C5B42E2681A44E26021688A4202D2FE
:1023A00062681344E360022E07D145B1013D00206D
:1023B00006E0002004E0002002E0002000E0002011
:1023C0000135A56370BD00BF026C72B110B5034644
:1023D000C4681444C4604068844201D31868D8605B
:1023E0000846D96803F07CFB10BD704738B5054638
:1023F00001F058F995F8454064B20AE06B6A53B1B0
:1024000005F1240000F03EFE08B100F0D7FE013CCB
:1024100064B2002CF2DCFF2385F8453001F064F94A
:1024200001F040F995F8444064B20AE02B6953B1D9
:1024300005F1100000F026FE08B100F0BFFE013CDF
:1024400064B2002CF2DCFF2385F8443001F04CF933
:1024500038BD00BF38B540B94FF0500383F3118841
:10246000BFF36F8FBFF34F8FFEE704460D4601F0B9
:1024700019F92168E26B236C03FB021060600020F5
:10248000A063A160013A02FB0313E360FF2384F819
:10249000443084F845307DB92369ABB104F11000B4
:1024A00000F0F0FD80B14FF08052094B1A60BFF38D
:1024B0004F8FBFF36F8F07E004F11000FFF7E2FECC
:1024C00004F12400FFF7DEFE01F00EF9012038BD13
:1024D00004ED00E010B5029B0C4609B91B6000E05A
:1024E0001A60D8631C6401211846FFF7B3FF10BDC2
:1024F00040B94FF0500383F31188BFF36F8FBFF3E0
:102500004F8FFEE7F0B583B0034611B101FB00F039
:1025100000E000201D4617460C46483000F0B2FF90
:10252000064638B100903B4600F148022146284655
:10253000FFF7D0FF304603B0F0BD00BFF0B585B067
:10254000019240B94FF0500383F31188BFF36F8FAE
:10255000BFF34F8FFEE7044619B9026C1AB9012286
:1025600002E0012200E0002242B94FF0500383F361
:102570001188BFF36F8FBFF34F8FFEE7022B03D19C
:10258000E26B012A02D102E0012200E0002242B9FE
:102590004FF0500383F31188BFF36F8FBFF34F8F5A
:1025A000FEE71D460E4600F00FFE18B9019B1BB951
:1025B000012302E0012300E0002343B94FF0500360
:1025C00083F31188BFF36F8FBFF34F8FFEE70027B0
:1025D00001F068F8A26BE36B9A4201D3022D21D17E
:1025E0002A4631462046FFF7B3FE636A6BB104F119
:1025F000240000F047FD88B14FF08052324B1A6042
:10260000BFF34F8FBFF36F8F08E038B14FF08052A8
:102610002D4B1A60BFF34F8FBFF36F8F01F064F83B
:1026200001204EE0019B1BB901F05EF8002048E05C
:102630001FB902A800F06CFD012701F055F800F069
:1026400043FB01F02FF894F844305BB2B3F1FF3F45
:1026500002D1002384F8443094F845305BB2B3F1E2
:10266000FF3F02D1002384F8453001F03DF801A975
:1026700002A800F063FDF0B92046FFF74BFEA0B1C1
:10268000019904F1100000F0E5FC2046FFF7AEFED2
:1026900000F0B4FB00289BD14FF080520A4B1A6027
:1026A000BFF34F8FBFF36F8F92E72046FFF79EFE79
:1026B00000F0A4FB8CE72046FFF798FE00F09EFB9D
:1026C000002005B0F0BD00BF04ED00E048B108B542
:1026D000002141600160C1600B460A46FFF72EFFF2
:1026E00008BD704710B5024600210120FFF700FF2A
:1026F0000446FFF7EBFF204610BD00BF2DE9F04177
:1027000084B0019240B94FF0500383F31188BFF3B6
:102710006F8FBFF34F8FFEE7044619B9026C1AB9E9
:10272000012202E0012200E0002242B94FF05003F2
:1027300083F31188BFF36F8FBFF34F8FFEE71F4600
:10274000884600F041FD18B9019B1BB9012302E046
:10275000012300E0002343B94FF0500383F31188B5
:10276000BFF36F8FBFF34F8FFEE7002600F09AFF95
:10277000A56B85B3E66841462046FFF725FEB7B94D
:10278000013DA563236813B900F0DCFD6060236997
:10279000EBB104F1100000F075FCC0B14FF08052B5
:1027A0003D4B1A60BFF34F8FBFF36F8F0FE0E660B2
:1027B000636A63B104F1240000F064FC38B14FF0A7
:1027C0008052354B1A60BFF34F8FBFF36F8F00F00D
:1027D0008BFF01205DE0019B1BB900F085FF00200D
:1027E00057E01EB902A800F093FC012600F07CFF20
:1027F00000F06AFA00F056FF94F844305BB2B3F18F
:10280000FF3F02D1002384F8443094F845305BB296
:10281000B3F1FF3F02D1002384F8453000F064FF9C
:1028200001A902A800F08AFC38BB2046FFF782FD10
:10283000E8B1236833B900F035FF606800F0D4FCDC
:1028400000F052FF019904F1240000F003FC20463F
:10285000FFF7CCFD00F0D2FA002887D14FF080526C
:102860000D4B1A60BFF34F8FBFF36F8F7EE720468B
:10287000FFF7BCFD00F0C2FA78E72046FFF7B6FD8F
:1028800000F0BCFA2046FFF755FD00283FF46EAF7C
:10289000002004B0BDE8F08104ED00E00A4B1B68A5
:1028A0001B680BB9012300E0002323B14FF0FF3276
:1028B000064B1A607047044B1B68DB68DB685A687C
:1028C000024B1A60704700BF38010020140200203C
:1028D00010B50446006B00F057FE204600F054FE91
:1028E00010BD00BF2DE9F04780469946089D099F1D
:1028F0000A9C236B02F18042013A03EB820626F028
:102900000706002306E0C85CE21882F83400CA5CBF
:1029100012B101330F2BF6D9002384F84330062D72
:1029200000D90625E56265644FF0000AC4F848A0A6
:10293000201DFFF7B3FC04F11800FFF7AFFC246182
:10294000C5F10705A5616462C4F84CA084F850A0E5
:102950004A464146304600F07DFE206007B13C60AB
:10296000BDE8F08738B5002407E004EB840293004B
:102970000E481844FFF786FC0134062CF5D90C4D9F
:102980002846FFF77FFC0B4C2046FFF77BFC0A48EC
:10299000FFF778FC0948FFF775FC0948FFF772FC60
:1029A000084B1D60084B1C6038BD00BF5C01002057
:1029B0001C02002030020020F8010020400100200D
:1029C00044020020380100205401002010B50446C4
:1029D00000F068FE204A1368013313601F4B1B6828
:1029E0003BB91E4B1C601368012B0DD1FFF7BAFFDA
:1029F0000AE01B4B1B683BB9184B1B68DA6AE36A99
:102A00009A4201D8154B1C60164A136801331360B3
:102A1000E36A012202FA03F1134802680A430260E2
:102A200003EB83039A00211D10481044FFF73AFC82
:102A300000F05AFE0A4B1B686BB1084B1B68DA6A40
:102A4000E36A9A4207D24FF08052094B1A60BFF3F3
:102A50004F8FBFF36F8F10BDF0010020F4010020F5
:102A60003C01002018020020580200205C010020D8
:102A700004ED00E070B504460E461D4B1D681D4B6D
:102A800018680430FFF734FC50B91A4B1B68DA6A37
:102A9000012303FA02F218490B6823EA02030B60D0
:102AA000B4F1FF3F07D136B1124B19680431134816
:102AB000FFF7F8FB70BD2C440E4B1B685C60A54211
:102AC00007D90F4B18680B4B19680431FFF7F6FB59
:102AD00070BD0C4B1868074B19680431FFF7EEFB0B
:102AE000094B1B689C4201D2074B1C6070BD00BFA4
:102AF00010020020F40100205802002044020020AF
:102B00005401002038010020140200202DE9F04378
:102B100085B006460F4615469846900000F0B2FC78
:102B200060B18146542000F0ADFC044610B1C0F8FD
:102B3000309004E0484600F027FD00E000248CB10E
:102B40000023039302940D9B01930C9B0093434637
:102B50002A4639463046FFF7C5FE2046FFF736FFC6
:102B6000012001E04FF0FF3005B0BDE8F08300BF69
:102B700038B5044600F096FD0CB92A4B1C68251D9B
:102B80002846FFF7B5FB70B9E26A02EB82018B00C1
:102B90002549CB583BB9012303FA02F223490B68BC
:102BA00023EA02030B60A36A1BB104F11800FFF7CC
:102BB0009FFB1F4A1368013313601A4B1B689C422A
:102BC00008D129461B48FFF76DFB1B4A13680133E8
:102BD000136008E0194A1368013B13602046FFF7B1
:102BE00077FEFFF75BFE00F07FFD154B1B68BBB166
:102BF0000C4B1B689C4213D1124B1B6843B14FF026
:102C0000500383F31188BFF36F8FBFF34F8FFEE73D
:102C10004FF080520C4B1A60BFF34F8FBFF36F8F92
:102C200038BD00BFF40100205C01002058020020E4
:102C30001802002040010020EC010020F0010020DB
:102C40003C010020E801002004ED00E000B583B065
:102C5000174B019300230093802216491648FFF773
:102C600055FF012814D14FF0500383F31188BFF3AF
:102C70006F8FBFF34F8F4FF0FF32104B1A6001225E
:102C80000F4B1A6000220F4B1A6000F097FD0BE00B
:102C9000B0F1FF3F08D14FF0500383F31188BFF329
:102CA0006F8FBFF34F8FFEE703B05DF804FB00BFEB
:102CB0000C020020D0640008992F000814020020A4
:102CC0003C01002010020020024A13680133136007
:102CD000704700BFE8010020F8B53D4B1B68002B92
:102CE00069D13C4B1D6801351D60C5B93A4B1B6865
:102CF0001B6843B14FF0500383F31188BFF36F8F0C
:102D0000BFF34F8FFEE7344A1168344B18681060E8
:102D10001960334A136801331360FFF7BFFD314B6D
:102D20001B689D4203D200243AE0012400E0002405
:102D3000294B1B681B680BB9012300E0002323B15A
:102D40004FF0FF32274B1A602AE0234B1B68DB68E9
:102D5000DE6873689D4202D2224A136020E0371D6C
:102D60003846FFF7C5FAB36A1BB106F11800FFF742
:102D7000BFFAF36A012202FA03F11B4802680A4310
:102D8000026003EB83039A00394618481044FFF7AA
:102D900089FAF26A164B1B68DB6A9A42C5D2C7E70A
:102DA000134B1B68DB6A03EB83039A000F4B9B58A2
:102DB000012B06D806E00F4A136801331360002484
:102DC00000E001240C4B1B6803B101242046F8BD30
:102DD000E8010020100200203801002054010020EA
:102DE0003401002014020020580200205C01002061
:102DF000F4010020580100205C02002038B5344B5B
:102E00001B6843B94FF0500383F31188BFF36F8FF2
:102E1000BFF34F8FFEE700F045FC2D4B1A68013AD7
:102E20001A601B68002B4CD12A4B1B6833BB002453
:102E30004AE0294BDB68DC6804F11800FFF758FA18
:102E4000251D2846FFF754FAE36A012202FA03F12E
:102E5000224802680A43026003EB83039A00294672
:102E60001F481044FFF71EFAE26A1E4B1B68DB6A1C
:102E70009A4204D301221C4B1A6000E00024164B36
:102E80001B68002BD5D10CB1FFF708FD174B1C6850
:102E900054B1FFF721FF10B10122134B1A60013C1E
:102EA000F7D10022114B1A600F4B1B685BB14FF03A
:102EB00080520F4B1A60BFF34F8FBFF36F8F012407
:102EC00002E0002400E0002400F00EFC204638BDA3
:102ED000E8010020F0010020F80100205802002045
:102EE0005C010020F40100205C0200205801002059
:102EF00004ED00E010B5A8B10446104B1B6843B1C7
:102F00004FF0500383F31188BFF36F8FBFF34F8FE0
:102F1000FEE7FFF7D9FE00212046FFF7ABFDFFF7E4
:102F20006DFF00E0002038B94FF08052044B1A606A
:102F3000BFF34F8FBFF36F8F10BD00BFE8010020BC
:102F400004ED00E010B51BE0FFF7BEFE0F4B1C6860
:102F5000FFF754FFA4B100F0A5FB0C4BDB68DC6865
:102F6000201DFFF7C5F90A4A1368013B1360094A9F
:102F70001368013B136000F0B7FB2046FFF7A8FC85
:102F8000044B1B68002BDFD110BD00BF40010020A7
:102F9000F0010020EC01002008B5FFF7D3FF064B3D
:102FA0001B68012BF9D94FF08052044B1A60BFF314
:102FB0004F8FBFF36F8FF0E75C01002004ED00E05E
:102FC0001F4B1B681BB101221E4B1A607047002269
:102FD0001C4B1A601C4B1B68B3FA83F3DBB2C3F1C2
:102FE0001F0303EB83018A0018498A5842B94FF046
:102FF000500383F31188BFF36F8FBFF34F8FFEE74A
:1030000030B4124D9900CA189000284442685468A0
:10301000446019448A0008322A44944205D1606809
:1030200003EB83018A002A44506003EB83039A0078
:10303000064B1A445368DA68054B1A6030BC704777
:10304000E80100205C020020580200205C01002002
:10305000F401002040B94FF0500383F31188BFF30F
:103060006F8FBFF34F8FFEE710B50C46044B196806
:103070001831FFF723F901212046FFF7FBFC10BDB3
:10308000F401002038B5C368DC6844B94FF0500340
:1030900083F31188BFF36F8FBFF34F8FFEE704F107
:1030A00018052846FFF724F9134B1B68A3B9251D03
:1030B0002846FFF71DF9E36A012202FA03F10F48DF
:1030C00002680A43026003EB83039A0029460C4816
:1030D0001044FFF7E7F803E029460A48FFF7E2F853
:1030E000E26A094B1B68DB6A9A4203D90120074B4D
:1030F000186038BD002038BDE801002058020020CB
:103100005C010020F8010020F40100205C02002096
:1031100040B94FF0500383F31188BFF36F8FBFF3B3
:103120004F8FFEE7034A12680260034A126842604A
:10313000704700BF340100201002002038B540B9AC
:103140004FF0500383F31188BFF36F8FBFF34F8F9E
:10315000FEE7044641B94FF0500383F31188BFF3F3
:103160006F8FBFF34F8FFEE70D4600F09BFA114BB8
:1031700019682A68B2F1FF3F13D020680E4B1B6814
:10318000984202D0636899420DD26368C81A82429D
:103190000BD95B1A13442B602046FFF7B9FF0024BC
:1031A00004E0002402E0012400E0012400F09CFA85
:1031B000204638BD10020020340100200122014BBE
:1031C0001A6070475C020020054B1B6823B1054B59
:1031D0001B681BB902207047012070470020704710
:1031E0003C010020E801002000284AD038B5024602
:1031F000C36A24490968C96A8B4241D2816900299E
:1032000005DB20490968C96AC1F10701816150697C
:1032100003EB830399001C4B1944884201D101231D
:1032200000E0002343B31446151D2846FFF760F85D
:1032300070B9E36A03EB83018A0013498A583AB9EB
:10324000012202FA03F311490A6822EA03030B6020
:103250000C4B1B68DB6AE362012202FA03F10B48A4
:1032600002680A43026003EB83039A00294606487A
:103270001044FFF717F838BD024B1B68DB6AD362B6
:1032800038BD7047F40100205C0100205802002086
:1032900000284BD038B50346274A1268904208D020
:1032A0004FF0500383F31188BFF36F8FBFF34F8F3D
:1032B000FEE7826C42B94FF0500383F31188BFF3ED
:1032C0006F8FBFF34F8FFEE7013A8264C06A596C7B
:1032D00088422DD072BB1C461D1D2846FFF708F8FA
:1032E00070B9E26A02EB82018B001449CB583BB9FA
:1032F000012303FA02F212490B6823EA02030B606E
:10330000636CE362C3F10702A261012404FA03F0D3
:103310000B490A6802430A6003EB83039A002946BB
:1033200006481044FEF7BEFF204638BD0020704717
:10333000002038BD002038BDF40100205C010020D1
:1033400058020020054B1B6823B1044B1A68936C8C
:1033500001339364014B1868704700BFF4010020EB
:10336000842801D0033070470020704708B5FFF76C
:103370006DFC002008BD00BFF0B585B00F46446865
:1033800005680669B0F90800FFF7EAFF03AB01938F
:1033900000903B46B2B229462046FFF7B7FB012812
:1033A00001D1039800E0002005B0F0BD08B508B9D0
:1033B0000120FFE7FFF79EFD002008BD08B5FFF7DD
:1033C00003FF012801D000F0CDF908BD124A12F028
:1033D000070F07D0D11D21F00701C1F54063134449
:1033E0000A4601E04FF440630C480260002141604E
:1033F0001344083B23F00703094803605960196030
:10340000991A51601360074B1960074B19604FF010
:103410000042064B1A6070477002002068020020CC
:1034200064020020740E002060020020700E002054
:10343000124B00E013461A688242FBD310B45C685A
:103440001919884203D141682144596018464468DB
:1034500001198A420CD10A4909688A4206D0526889
:10346000224442601A681268026002E0016000E0D3
:103470000260984200D0186010BC704768020020BB
:103480006402002070B50446FFF71EFC394B1B6830
:103490000BB9FFF79BFF384B1B681C4253D194B10B
:1034A000083414F0070F0ED024F00704083404F099
:1034B000070343B14FF0500383F31188BFF36F8FBD
:1034C000BFF34F8FFEE7002C3FD02C4B1B689C4274
:1034D0003DD82B4B1D6801E02B4615466A68944287
:1034E00002D92A68002AF7D1224A1268954230D0C0
:1034F0001E6808362A681A606B681B1B102B10D9CF
:10350000281910F0070F08D04FF0500383F31188EB
:10351000BFF36F8FBFF34F8FFEE743606C60FFF721
:1035200087FF6A6815490B689B1A0B601549096883
:103530008B4201D213490B600F4B1B681A436A6020
:1035400000232B6006E0002604E0002602E00026AF
:1035500000E00026FFF752FC16F0070F08D04FF0EE
:10356000500383F31188BFF36F8FBFF34F8FFEE7D4
:10357000304670BD64020020700E00206002002002
:1035800068020020740E0020A0B338B50346A0F1F5
:10359000080550F8042C1849096812EA010408D1FA
:1035A0004FF0500383F31188BFF36F8FBFF34F8F3A
:1035B000FEE750F8080C40B14FF0500383F3118838
:1035C000BFF36F8FBFF34F8FFEE794B188B91C46EE
:1035D00022EA010243F8042CFFF776FB54F8043C7E
:1035E000064A11680B4413602846FFF721FFFFF7D6
:1035F00005FC38BD704700BF700E0020600200203F
:103600000B4B1B68B3F1FF3F08D04FF0500383F31F
:103610001188BFF36F8FBFF34F8FFEE74FF050035A
:1036200083F31188BFF36F8FBFF34F8FFEE700BFA7
:103630000C00002006480068006880F3088862B625
:1036400061B6BFF34F8FBFF36F8F00DF00BF000085
:1036500008ED00E04FF0807340F8043C21F00101D8
:1036600040F8081C034B40F80C3C40F8202C403834
:10367000704700BF01360008000000000000000095
:10368000074B19680868B0E8F00F80F30988BFF3AA
:103690006F8F4FF0000080F311884EF00D0E7047D1
:1036A000F40100204FF0500383F31188BFF36F8FB4
:1036B000BFF34F8F0A4A136801331360012B0DD1FA
:1036C000084B1B6813F0FF0F08D04FF0500383F333
:1036D0001188BFF36F8FBFF34F8FFEE7704700BFB6
:1036E0000C00002004ED00E0094B1B6843B94FF0CB
:1036F000500383F31188BFF36F8FBFF34F8FFEE743
:10370000013B034A13600BB983F31188704700BF74
:103710000C0000200000000000000000000000007D
:10372000EFF30980BFF36F8F0D4B1A6820E9F00F9C
:1037300010602DE908404FF0500080F31188FFF72A
:103740003FFC4FF0000080F31188BDE80840196885
:103750000868B0E8F00F80F30988BFF36F8F7047F7
:10376000F401002008B54FF0500383F31188BFF334
:103770006F8FBFF34F8FFFF7AFFA18B14FF0805242
:10378000024B1A60002383F3118808BD04ED00E0AA
:10379000064B1B68064AA2FB03239B09013B054A13
:1037A00013600722044B1A60704700BF0800002016
:1037B000D34D621014E000E010E000E000B583B0EB
:1037C0001F4B1A78D2B20192FF221A701B78DBB21B
:1037D0008DF803309DF8033003F05003194A13703D
:1037E0000722194B1A6009E0174A1368013B13605E
:1037F0009DF803305B00DBB28DF803309DF8033099
:1038000013F0800FF0D1104A13681B0203F4E06339
:103810001360019BDBB20A4A13700C4B1A6842F426
:1038200070021A601A6842F070421A60FFF7B0FF27
:103830000022074B1A60FFF7FDFEFFF7E1FE00BF15
:1038400000E400E0780E00207C0E002020ED00E077
:103850000C00002008B50D480D4B03604FF4827337
:10386000436000238360C360036143614FF40072CF
:1038700082613022C2610362436283620A23C362AF
:1038800000F0DCF908B1FDF7C9F808BDE01100202F
:103890000030014010B586B00023029303930493D7
:1038A00005930268164B9A4227D103F560439A6943
:1038B00042F480529A619A6902F480520092009A0E
:1038C0009A6942F004029A619B6903F00403019330
:1038D000019BA02302930223039303230593094C26
:1038E00002A92046FEF72AF94023029300230393FE
:1038F000049302A92046FEF721F906B010BD00BFCF
:10390000003001400008014000B587B08DF80F007D
:103910004FF6FF73009301230DF117020DF10F0114
:10392000054800F069F810B99DF8170000E0002084
:1039300007B05DF804FB00BFE0110020F8B50546B4
:103940000F4616461C4636E0B4F1FF3F33D02CB18B
:10395000FDF7A6FD069BC01A84422CD82A6853683E
:1039600023F0E00353606B68B3F5827F0BD1AB6843
:10397000B3F5004F02D0B3F5806F04D12A68136805
:1039800023F040031360AB6AB3F5005F0BD12A68E4
:10399000136823F400531B041B0C13602A6813687C
:1039A00043F400531360012385F85130002385F858
:1039B00050300320F8BD2B689B6837EA030301D120
:1039C000012300E00023B342BED10020F8BD00BFB8
:1039D00010B582B0044600920B4600228021FFF70A
:1039E000ADFF034620B1636D43F0200363650323FD
:1039F000184602B010BD00BF2DE9F04385B09846CF
:103A00000C9D90F85030012B00F0148104460F46B5
:103A10001646012380F85030FDF742FD814694F8A8
:103A20005130DBB26268012B0AD0B2F5827F40F0E0
:103A3000E780A268002A40F0E580042B40F0E48093
:103A4000002F00F0E380002E00F0E280B8F1000FBC
:103A500000F0E08094F85130DBB2012B02D1052355
:103A600084F8513000236365A663A4F83E80A4F86F
:103A70003C802763A4F83680A4F834802364636410
:103A800023681A6812F0400F03D11A6842F040020E
:103A90001A60E368B3F5006F4AD163681BB1E38E27
:103AA0009BB2012B08D1236837F8022BDA60E38E32
:103AB0009BB2013B9BB2E3864FF001082FE0B8F1C7
:103AC000000F11D0E38E9BB273B123689A6812F095
:103AD000020F09D037F8022BDA60E38E9BB2013B6C
:103AE0009BB2E3864FF00008E38F9BB273B123686B
:103AF0009A6812F0010F09D0DB6826F8023BE38FC9
:103B00009BB2013B9BB2E3874FF00108B5F1FF3F49
:103B100005D0FDF7C5FCC9EB000085427CD9E38EDA
:103B20009BB2002BCBD1E38F9BB2002BC7D149E0D6
:103B300063681BB1E38E9BB2012B08D1236817F891
:103B4000012B1A73E38E9BB2013B9BB2E3864FF0CD
:103B500001082FE0B8F1000F11D0E38E9BB273B1D2
:103B600023689A6812F0020F09D03A781A73E38E2C
:103B70009BB2013B9BB2E38601374FF00008E38F15
:103B80009BB273B123689A6812F0010F09D0DB6809
:103B90003370E38F9BB2013B9BB2E38701364FF05A
:103BA0000108B5F1FF3F05D0FDF77AFCC9EB000035
:103BB000854233D9E38E9BB2002BCBD1E38F9BB2EE
:103BC000002BC7D1CDF800902B46012202212046C0
:103BD000FFF7B4FE20BB4A4629462046FFF7F8FE11
:103BE00018B12023636501201DE0A368D3B900202C
:103BF00003902368DA6803929B680393039B12E0A7
:103C0000022010E002200EE002200CE001200AE079
:103C1000012008E0012006E0032004E0032002E088
:103C2000032000E00020012384F85130002384F8B1
:103C3000503000E0022005B0BDE8F08300283CD001
:103C400010B504460023836290F8513013F0FF0F43
:103C500001D1FFF71FFE022384F851302268136858
:103C600023F04003136021686268A3681A43E36885
:103C70001A4323691A4363691A43A36903F400735F
:103C80001343E2691343226A1343A26A1A430A6088
:103C90002168638B03F00402636A13434B6023685B
:103CA000E26A1A612268D36923F40063D3610020B9
:103CB0006065012384F8513010BD0120704700BFBA
:103CC000014B1878704700BF800E002010B9002209
:103CD000014B1A70704700BF800E002010B582B0F3
:103CE000094B1B681C6A009200230A4601461846CD
:103CF000A047012804D10222044B1A70002000E0E2
:103D0000012002B010BD00BF840E0020800E0020F4
:103D100010B582B0084C2468246A009313460A4602
:103D200001460120A04718B90222044B1A7000E096
:103D3000012002B010BD00BF840E0020800E0020C4
:103D400008B5024B1B685B6A984708BD840E0020CB
:103D500008B5024B1B689B6A984708BD840E00207B
:103D600008B5024B1B68DB6A984708BD840E00202B
:103D700010B5214B1C68214BE363A36B98474FF4AC
:103D80007A70FFF7B7F8A3690022642110469847BC
:103D9000012829D04FF400511948FDF7C9FFA36944
:103DA000002264210220984701281FD04FF40051BF
:103DB0001348FDF7BDFFA369002264210320984743
:103DC000012815D04FF400510D48FDF7B1FFE3690C
:103DD00043F698220B490C48984701280AD0012243
:103DE0000A4B1A70002010BD012010BD012010BD2B
:103DF000012010BD012010BD840E0020CD3C000824
:103E000000100140D8640008E4640008800E00201F
:103E100008B500F0B5FA0A4B18600A4A5A600A4A17
:103E20009A600A4ADA600A4A9A610A4A5A610A4A58
:103E30001A610A4ADA610021094A1170184608BD60
:103E4000840E0020713D0008DD3C0008113D000893
:103E5000613D0008513D0008413D0008C13C00089B
:103E6000800E002038B505460C4600234FF0FF3287
:103E700019460C480068FEF741FC402C00D940244C
:103E800022462946084801F02BFE084B1C700021F1
:103E9000074B19750B460A4602480068FEF74EFBB1
:103EA000204638BDE40E0020C012002088130020F8
:103EB000A40E002070B51F4B186800F0E9FA032823
:103EC00003D11C4B186800F0B7FA1A4B186800F0C1
:103ED000E1FA0028EFD1174C206800F0CDFA2068F5
:103EE00000F0DAFA0546206800F0D8FA06462068A5
:103EF00000F0D2FA104901F039FE38B12E700023DB
:103F00001A4629460D480068FEF718FB094B186849
:103F100000F0C2FA0A4901F029FE30B1054BDB6B13
:103F2000002BC8D000209847C5E731462846FFF748
:103F300099FFC0E7A40E0020EC6400088413002061
:103F4000F464000808B5064B03225A7418684FF64B
:103F5000FF73082203490068FDF720F808BD00BF81
:103F6000A40E00200865000808B5074BDB7C082B71
:103F700008D10A22044BDA74044B1868FEF7F8FDE6
:103F8000002008BD012008BDA40E002080130020E1
:103F900070B590B006460D4640220021684601F0FB
:103FA000AAFD1A4B5B7C022B24D1184B9B7C042B63
:103FB00023D1164BDB7C0A2B22D000231A466946FC
:103FC00013480068FEF79AFB01281CD16C463A2181
:103FD000684601F0BDFD411C9DF800300C1BE4B2A9
:103FE0001C1B2246AC4200D32A46304601F078FD25
:103FF000204609E06FF0070006E06FF0080003E0DC
:104000006FF0060000E0002010B070BDA40E00208C
:104010008413002070B506460D461446FDF740FA9D
:10402000044406E029463046FFF7B2FF002806DBCD
:1040300005DCFDF735FA8442F4D86FF0090070BD55
:1040400008B540220021054801F055FD0022044B2F
:104050001A700122034B1A7508BD00BFC012002060
:1040600088130020A40E00202DE9F04F83B0834672
:10407000019116469846DDF830A09DF83490012550
:1040800000274CE0324C00234FF0FF3219462068E5
:10409000FEF734FBFFF7D4FF00231A4619462068C9
:1040A000FEF74CFA2B4B18684FF6FF73BDF804204F
:1040B00059460068FCF772FFFDF7F2F900EB0A04BD
:1040C00027E0244B1B7D0BBB4FF0FF3219462048E5
:1040D0000068FEF713FB31461F4801F047FD58B159
:1040E000B8F1000F07D01D4B1A781B49404601F06C
:1040F000F7FC002500E00025FFF7A2FF00231A4689
:10410000194613480068FEF719FAE5B10A20FEF7D0
:10411000F1FEFDF7C5F98442D3D80137FFB24F4510
:10412000B0D30B4C00234FF0FF3219462068FEF746
:10413000E5FAFFF785FF00231A4619462068FEF7C7
:10414000FDF9012000E0284603B0BDE8F08F00BF74
:10415000E40E0020A40E0020C012002088130020CE
:1041600070B582B006460C461E4D802200212846BE
:1041700001F0C1FC22461C49284601F0C5FC284636
:10418000FBF7F4FF194BDA6C93F85030019340F6CB
:10419000B8330093002301462846FFF765FF012846
:1041A00019D022463146284601F09AFC0D232B55A2
:1041B000631C0A22EA540123019340F6B8330093AA
:1041C00000230B4A21462846FFF74EFF012805D160
:1041D0004FF0FF3003E04FF0FF3000E0204602B028
:1041E00070BD00BF001300201465000810000020FF
:1041F00024650008F0B583B007460D4616461C46F8
:1042000080220021204801F076FC37B933462A4647
:104210001E491D4801F078FC0EE034B933462A46A9
:104220001B49194801F070FC06E0009433462A4609
:104230001849154801F068FC02230193C823009334
:104240000023154A0D211548FFF70EFF10B905226E
:10425000134B9A740C4C2046FBF788FF0223019302
:10426000089B009300230C4A01462046FFF7FCFE02
:10427000012803D105220A4B9A7403E00422084B5B
:104280009A74002003B0F0BD0013002030650008D0
:104290005065000870650008946500089C6500087A
:1042A000A40E002070B582B01646104D104C0B467F
:1042B0000246296B204601F027FC2046FBF756FFFB
:1042C0006A6B95F83830019300960023014620462A
:1042D000FFF7CAFE012803D10322064B5A7403E0FC
:1042E0000222044B5A74002002B070BD100000205E
:1042F00000130020A40E00202DE9F04782B00F46E5
:1043000016460D4D4FEA400909EB0002930005EBFC
:10431000030A55F803804046FBF728FFDAF804202B
:104320009AF8083001930097334601464046FFF75C
:104330009BFE02B0BDE8F087100000200C4BDB7C38
:104340000A2B0FD100B583B00823094AD374094A58
:10435000019200930023402207490848FEF7D6FB4C
:10436000002001E00120704703B05DF804FB00BFAE
:10437000A40E002080130020AC650008B53E0008A4
:1043800038B5184D1849284600F048F8174C2560F4
:10439000032363740520A0740A23E37401252575A3
:1043A000134BA361134BE361134B2362134B236342
:1043B000134B6362134BE362134BA362134B6363B0
:1043C000134BA36300224021FEF792F8114B1860B3
:1043D0002846FEF787F9104B1860236B9847204654
:1043E00038BD00BF3812002098110020A40E002014
:1043F000F9420008A5420008F54100083D430008C5
:104400006141000815400008913F0008693F00081D
:10441000453F000884130020E40E002038B5044610
:104420000D468822002101F066FB256001232371DF
:104430000323637138BD00BF38B50446851D802253
:104440000021284601F057FB012323716379032BD8
:1044500011D10223637123681B686FF010021A6088
:1044600023681A68D36843F01003D360802229467A
:104470002068FCF705FE38BD08B5012303714379B8
:10448000022B04D1032343710068FCF74DFE08BDE5
:10449000407970470079704706307047B0F8860061
:1044A000704700BF03681B686FF020021A60036842
:1044B0001B681A6812F0100F14D06FF010021A6007
:1044C00003681A681268A0F886201A685268A0F873
:1044D00086205B6B1B685B68C3F18003A0F88630A5
:1044E00000230371704700BF00B593B000234FF065
:1044F000FF32194617480068FEF700F9164B1B6893
:104500005B699847022802D0032814D017E0124BA9
:104510001B68DB680DF106010DF1090098479DF855
:1045200006308DF8083000231A4602A90B480068AF
:10453000FEF704F803E0084B1B689B6898470023CC
:104540001A46194603480068FDF7F8FF3220FEF7C7
:10455000D1FCCBE7EC0E0020E80E0020F00E00208E
:1045600010B5044600231A46014605480068FEF7C8
:10457000C5F8012801D1207810BD002010BD00BF72
:10458000F00E002038B505460C46FCF789FF0444C0
:1045900007E02846FFF7E4FF034638B90A20FEF794
:1045A000A9FCFCF77DFF8442F3D80023184638BDF0
:1045B00010B582B000F0B8F8104C20600120FEF772
:1045C00091F80F4B1860002240210520FDF790FF65
:1045D0000C4B1860002301930822009240220A49E4
:1045E0000A48FEF793FA23681BB11B68984700201E
:1045F00001E04FF0FF3002B010BD00BFE80E002018
:10460000EC0E0020F00E002024660008E9440008AB
:10461000704700BF704700BF70B504460E46154690
:1046200000224FF480710B48FDF77CFB44F08000C2
:10463000FFF76AF9002404E0305DFFF765F9013403
:10464000E4B2AC42F8D301224FF480710148FDF787
:1046500069FB70BD0008014000B583B002AB03F8F0
:10466000011D01221946FFF7D7FF03B05DF804FBD7
:1046700070B504460E46154600224FF480710C4872
:10468000FDF750FB04F07F00FFF73EF9002405E042
:104690000020FFF739F930550134E4B2AC42F7D3CA
:1046A00001224FF480710248FDF73CFB70BD00BF52
:1046B0000008014008B50122FFF7DAFF08BD00BF7E
:1046C00008B50A4601460020FFF7A6FF08BD00BF57
:1046D00008B50A4601460020FFF7CAFF08BD00BF23
:1046E00008B54FF480510248FDF714FB08BD00BF28
:1046F000000C014008B54FF400510248FDF70AFBD9
:1047000008BD00BF000C014008B54FF480410248CD
:10471000FDF700FB08BD00BF000C01400120704701
:1047200001207047704700BF0648074B0360074BE6
:104730004360074B8360074BC360074B0361074B24
:10474000436170479413002029480008614700081E
:104750005D4800087948000891480008A948000809
:1047600010B50120FFF756FFFCF79AFE0446FCF750
:1047700097FE8442FBD00020FFF74CFFFCF790FE31
:104780000446FCF78DFE001B0528FAD910BD00BFBA
:10479000214B1B7883423ED010B51F4B18701F4B26
:1047A000187008B3002000F095F81D4C226853786B
:1047B00043F080035370236859780120FFF74CFFC2
:1047C000012000F087F82168002381F83D3081F84E
:1047D0003E3002223D314020FFF71EFF6F2211497B
:1047E0000120FFF745FF10BD002000F073F80C4AD0
:1047F00011684B7803F07F034B70136859780120E0
:10480000FFF72AFF012000F065F86F22054901201B
:10481000FFF72EFF10BD7047F50E0020F40E0020AC
:104820001C140020AD13002008B5084B084A136083
:10483000084A1360FFF7ECFEFFF792FF0120064BDA
:104840001870FFF7A5FF00F06FF808BDAC1300204B
:10485000201400201C140020F40E002008B5054B85
:104860001B781BB9012000F009FE08BD012000F0F3
:10487000E3F808BDF40E002008B5044B1B7813B90B
:1048800000F0B8FD08BD00F0B7F808BDF40E002038
:1048900008B5044B1B7813B900F0BCFD08BD00F04F
:1048A000B9F808BDF40E002008B5044B1B7813B905
:1048B00000F0EAFD08BD00F0C7F808BDF40E0020C6
:1048C00008B5034B19683F314220FFF7F3FE08BDDE
:1048D0001C140020124B1B685B7803F00703834213
:1048E0001CD010B5032801D1012300E000230446A9
:1048F0000C4A1278934204D00A4A13701846FFF704
:1049000011FF074B1A68507820F0070020435070C1
:104910001B6859780120FFF79FFE10BD704700BF4C
:104920001C1400207000002010B50022264B1A70C5
:10493000FFF7C6FF254C6F2221460120FFF798FEA6
:10494000234B1B6820221A736F2221460120FFF798
:1049500063FE204C206800F03FFBA07900F0ACFC27
:10496000E07900F0CDFB207A00F0E4FB607900F004
:10497000ADFB607A00F0F8FB40F2FF3000F054FC31
:10498000207E00F009FC012000F068FC2268124B38
:104990009A420AD9002000F033FC002000F00EFCFF
:1049A0000E20207100F03CFB0AE0802000F028FC83
:1049B000012000F003FC1420064B187100F030FBBE
:1049C0000120FFF787FF10BD02100020AD1300206B
:1049D0001C14002074000020008F423310B5054CD9
:1049E00021680C310C20FFF765FE2368187B400915
:1049F00010BD00BF1C14002008B5044B1A880A80A3
:104A000000211980024901F06BF808BDFE0F00205B
:104A1000F80E002008B50A46044B198001460448E8
:104A200001F05EF80522034B1A7008BD001000204B
:104A3000F80E002002100020014B1870704700BFD4
:104A40000210002000000000D0B582B0A84B1B78F7
:104A5000013B092B00F29D82DFE813F00A0066009B
:104A6000BD00D401D90135025C029B0264028102BF
:104A70000120FFF72FFF9F4B1B689D2159741120C8
:104A8000FFF7EAFD9C4BDB7A9BB19A4C21689A4B6D
:104A90001B7B81F824301C311C20FFF70BFE2368A0
:104AA0001B7F03F03F03954A52F8230000F094FA6D
:104AB00004E0904B1B68FF2283F824208D4C236870
:104AC00093F824102420FFF7C7FD2168002381F804
:104AD0003D3081F83E3002223D314020FFF79CFD01
:104AE000854B9B7A1BB10620FFF7F4FE09E0814B52
:104AF0001B68D97B59730D20FFF7AEFD0520FFF72A
:104B0000E9FE4FF4807200217D4800F0F4FF7A4BFB
:104B10005A697C4B1A60FCF7C3FC7B4B186002227D
:104B2000734B1A7001203DE2FFF7DAFD01281CD11A
:104B3000FCF7B6FC744B18606F4BDB7A73B16D4CAD
:104B400021681C311C20FFF7B5FD23681B7F03F093
:104B50003F036A4A52F8230000F03EFA4021122037
:104B6000FFF77AFD0322624B1A70FFF7CDFD012893
:104B70001DD1FCF795FC644B18605F4BDB7A73B179
:104B80005C4C21681C311C20FFF794FD23681B7FBF
:104B900003F03F03594A52F8230000F01DFA0221A6
:104BA0001220FFF759FDFFF719FF584B1870524BB1
:104BB0009B7A002B00F0EF81FCF772FC524B1B68D4
:104BC000C01A504B1B68984240F2E7810422484BC0
:104BD0001A700120E6E1474C216812311220FFF7DC
:104BE00069FD23689B7C13F0200F0FD02021122039
:104BF000FFF732FD404B9B7A1BB101203C4B1870F4
:104C0000D0E102223A4B1A700120CBE10DF10701ED
:104C10001920FFF74FFD9DF8073013F0800F06D0E5
:104C20005B42C3F385035B42394A137002E09B0881
:104C3000374A13702F4B19681A311A20FFF73AFDC3
:104C40002D4B1A68334B9A422CD8314B93F90040C4
:104C5000002C15DA274B1B68987EFBF7D1FB00224E
:104C60002D4BFBF78FFA06460F462046FBF7D8FB85
:104C700032463B46FBF788FA284BC3E9000161E066
:104C80001C4B1B68987EFBF7BBFB15A3D3E90023E5
:104C9000FBF72CFC0022204BFBF774FA1F4BC3E9F7
:104CA00000014FE01A4B93F90040002C38DA114B09
:104CB0001B68987EFBF7A4FB0BA3D3E90023FBF74B
:104CC00061FA06460F462046FBF7AAFB32463B46F2
:104CD000FBF75AFA114BC3E9000133E0AFF3008050
:104CE0001B9E5E29CB10F13F0000000000A0634036
:104CF000021000201C1400207400002038660008F8
:104D0000F80E0020F80F0020041000209000002072
:104D1000FC0F0020FF8E423300806440081000200A
:104D2000A54B1B68987EFBF76BFB9FA3D3E9002381
:104D3000FBF7DCFB9EA3D3E90023FBF723FA9F4B91
:104D4000C3E900019E4B9B7A0BB39B4B1B68D97B3D
:104D500059730D20FFF780FC994B5B7A4BB1964B52
:104D60001B6893F82210974B19809748FFF7B0FC07
:104D70003CE0914C216813311320FFF79BFC236822
:104D8000D97C904B19809048FFF7A2FC2EE08A4B0B
:104D9000196810311020FFF78DFC894B5B7A8BB1BD
:104DA000854C236893F82210864A1180197C597328
:104DB0000D20FFF751FC236893F822108248FFF77B
:104DC00087FC13E07C4C216813311320FFF772FC41
:104DD0002368D97C7B4A1180197C59730D20FFF719
:104DE0003BFC2368D97C7848FFF772FC744B9B7AB4
:104DF00023B10122754B1A700220D3E00220734BBD
:104E00001870CFE00122714B1A700320CAE0012014
:104E1000FFF760FD6A4BDB7AABB1674C2168F52385
:104E20004B74674B1B7B81F824301C311C20FFF72F
:104E300041FC23681B7F03F03F03654A52F82300BF
:104E400000F0CAF806E05C4B1B68F7225A74002297
:104E500083F82420584C236893F824102420FFF76B
:104E6000FBFB2368597C1120FFF7F6FB2368594AA6
:104E7000117883F822102220FFF7EEFB236800212F
:104E800099730E20FFF7E8FB2368997B59730D2077
:104E9000FFF7E2FB236893F822104B48FFF710FC62
:104EA0002168412381F83D30402081F83E000222F4
:104EB0003D31FFF7B1FB0320FFF70CFD0622434B0A
:104EC0001A7001206EE0FFF70BFC012806D10821C3
:104ED0001220FFF7C1FB07223C4B1A70FFF714FCAE
:104EE00001285CD1364BDB7A73B1334C21681C311D
:104EF0001C20FFF7DFFB23681B7F03F03F03344ACE
:104F000052F8230000F068F802211220FFF7A4FBFA
:104F1000012047E00120FFF7DDFC00222B4B1A7037
:104F200004203FE00120FFF7D5FC234C2368FA2141
:104F300059741120FFF790FB2168002381F83D3060
:104F400081F83E3002223D314020FFF765FB07200B
:104F5000FFF7C0FC0A221D4B1A70012022E0FFF768
:104F6000DDFB01281DD104211220FFF775FBFFF79F
:104F7000D7FB012808D101211220FFF76DFB012288
:104F8000124B1A7008200DE00022104B1A700720F7
:104F900008E0012006E0012004E0012002E00120F9
:104FA00000E0012002B0D0BD1B9E5E29CB10F13F76
:104FB0000000000000A063401C1400200810002026
:104FC00074000020FE0F0020F80E002002100020C8
:104FD000386600080010002008B50F4B1860FBF77A
:104FE0000FFA0BA3D3E90023FBF7AAFBFBF7B8FCEE
:104FF0000A4B1968C0F307438B71C0F30723CB71C9
:105000000872032206310620FFF706FB08BD00BF29
:105010000000000080844E40740000201C1400201A
:1050200038B50446274D296809310920FFF742FBAE
:10503000296849314D20FFF73DFB2A68537A13F068
:10504000800F25D092F8491001F0870187290FD1F0
:10505000042C00DC0524142C00DD142443F0700320
:10506000611F01F00F0123F00F030B43537220E087
:10507000012C00DC0224112C00DD112443F070030C
:10508000A11E01F00F0123F00F030B43537210E038
:10509000B4F1FF3F01DA4FF0FF340E2C00DD0E2497
:1050A00043F07003611C01F00F0123F00F030B4369
:1050B0005372044B1B68597A0920FFF7CDFA024B53
:1050C0001C7138BD1C1400207400002038B5044643
:1050D000094D29681D311D20FFF7ECFA2B68597F17
:1050E00001F00F0141EA0411C9B259771D20FFF701
:1050F000B3FA024B5C7138BD1C1400207400002010
:1051000038B50446094D29681D311D20FFF7D2FA34
:105110002B68597F21F00E0141EA4401C9B2597749
:105120001D20FFF799FA024BDC7138BD1C140020DA
:105130007400002038B50446094D29681E311E2030
:10514000FFF7B8FA2B68997F21F0040141EA840146
:10515000C9B299771E20FFF77FFA024B1C7238BD47
:105160001C1400207400002038B50446084D29683E
:105170001D311D20FFF79EFA2B68597F21F0010198
:10518000214359771D20FFF767FA024B5C7238BD47
:105190001C1400207400002010B50446054B1B6849
:1051A00083F8220001462220FFF756FA024B1C76B4
:1051B00010BD00BF1C1400207400002038B5054647
:1051C0000E4C216849314D20FFF774FA21680931EE
:1051D0000920FFF76FFA236893F90920002A04DAFF
:1051E00035B1872283F8492002E0842283F84920E0
:1051F00093F849104D20FFF72FFA38BD1C140020FA
:1052000038B50446074D296809310920FFF752FADD
:105210002B68597A01F07F01214359720920FFF769
:105220001BFA38BD1C14002038B504460A4D296805
:1052300002221E311E20FFF71BFA29688B7FC4F360
:10524000012223F0030313438B77CC7702221E3114
:105250001E20FFF7E1F938BD1C14002038B50546C3
:10526000094C216826312620FFF724FA236893F899
:10527000261021F0080141EAC501C9B283F82610C1
:105280002620FFF7E9F938BD1C14002038B5044684
:10529000084D296830313120FFF70CFA2B6893F85C
:1052A000301021F00701214383F830103120FFF73F
:1052B000D3F938BD1C14002038B50C2803D8044697
:1052C000052802D902E00C2400E00624062C03D1B4
:1052D0000520FFF7DBFF02E00320FFF7D7FF0A4DB1
:1052E00029681E311E20FFF7E5F92B68997F01F030
:1052F0000F0141EA0411C9B299771E20FFF7ACF9FA
:10530000024B9C7138BD00BF1C14002074000020AB
:10531000124B1B685B7803F0070383421CD010B567
:10532000032801D1012300E0002304460C4A12782F
:10533000934204D00A4A13701846FFF7F3F9074B5B
:105340001A68507820F00700204350701B68597885
:105350000120FFF781F910BD704700BF2014002025
:10536000920000200000000010B50D4C21680222C0
:105370001B311B20FFF77CF92368D87E1B7F43EA93
:105380000020FBF74DF804A3D3E90023FBF7AEF8A8
:10539000FBF7BEFA10BD00BF0000000080844E4045
:1053A0002014002010B5054C21680C310C20FFF7AB
:1053B00081F92368187B400910BD00BF201400202C
:1053C00010B50A4C216811311120FFF773F92368D9
:1053D000587CFBF715F80022054BFBF787F80246CF
:1053E0000B46104603F1004110BD00BF2014002001
:1053F0000000E03F08B5054B1A880A8000221A8099
:105400000A88034900F06CFB08BD00BF1C11002096
:105410001010002008B50A46044B198001460448C4
:1054200000F05EFB0722034B1A7008BD2811002014
:10543000101000203911002030B40F4B1C6894F874
:10544000273003F00703013394F83010CA0911F034
:10545000060F14BF0125002594F8320011F0100F3B
:1054600001D0022100E0002113442B4418440844D9
:1054700080B230BC704700BF20140020014B187070
:10548000704700BF3911002038B5A24B1B78013B93
:105490000A2B00F25F82DFE813F00B006F00D800E8
:1054A0009F01A701B901CB01EA011702530258027B
:1054B000994B196891F8303013F0100F03D04C233A
:1054C00081F8403002E00C2381F84030E12381F87C
:1054D0004130022240314020FFF79EF80520FFF7BF
:1054E00017FF4FF4807200218C4800F004FBFFF797
:1054F000A3FFFAF785FF0022894BFAF7F7FF04466E
:105500000D46884B5868FAF77BFF02460B4620464B
:105510002946FBF715F90022834BFAF7E7FF00F065
:105520003FFF0022814BFAF72FFEFBF719FA80B2FA
:1055300000EB50007E4B18607E4B1860FBF7B0FF0D
:105540007D4B18607D4B1860734B1B68A02183F85E
:1055500035103520FFF780F80023794A1370794A17
:105560001370794A1370794A1370794A13800222B2
:10557000684B1A70012038BDFFF7D2F8012809D115
:105580006F4B1B7833B901226D4B1A70FBF788FF04
:105590006A4B1860FFF7B8F801281ED1684B1B78DA
:1055A000DBB1684B1B78C3B90122664B1A70FFF759
:1055B00007FF684BC3E90001FFF7D6FE664B186092
:1055C000FFF7F0FE654B1870FBF76AFF5A4B186047
:1055D0005A4B186003224F4B1A705A4B1B78B3B9C1
:1055E000574B1B789BB1FBF75BFF544B1B68C01AF2
:1055F000504A126890420AD90122464B1A70464B13
:105600001B68597B41F020010D20FFF725F84D4B19
:105610001B78002B40F0A081494B1B78002B40F0F9
:105620009D81494B1B78002B40F09A81FBF738FF96
:10563000414B1B68C01A3E4A1268904240F2928168
:105640000522344B1A70012038BD414B1B88B3F53D
:10565000807F04D906222F4B1A70012038BDFFF736
:1056600049F801283AD13A4B1B888BB9374B1B7844
:1056700073B9294B1B6893F93020002A04DA012101
:105680003348FFF725F803E093F83220304B1A80B7
:105690002F4B1A882D4B1B78D01A1F49096891F897
:1056A000351001F03F0188420EDD1C481844FFF719
:1056B0000FF8194B1B6893F83530244903F03F026B
:1056C0000B7813440B7009E0D11AC9B2134818447F
:1056D000FEF7FEFF1E4B1A881C4B1A70FFF700F8EE
:1056E000012865D1FBF7DCFE134B1860184B1B88B3
:1056F000002B4CD1154A1278002A48D1064B1B6862
:1057000093F93020002A2BDA01211148FEF7E0FF3F
:105710002AE000BF391100202014002010100020C2
:10572000000020409400002000408F400000F03F27
:1057300010110020241100203C1100201411002021
:1057400038110020401100203B1100203A110020A8
:105750001C110020301100201811002091000020A1
:1057600093F83220844B1A80844C2378824D297818
:10577000C91AC9B282481844FEF7AAFF2B882370C1
:105780000122804B1A7004227F4B1A7010E07B4C70
:105790002278991AC9B27A481044FEF799FF764BDD
:1057A0001B8823700122774B1A700422764B1A70E3
:1057B000744B1B78002B40F0D780FBF771FE734BC6
:1057C0001B68C01A724A1268904240F2CF800522CC
:1057D0006D4B1A70012038BD0022684B1A700122EF
:1057E000694B1A70022038BD0023644A1370624A64
:1057F0001380684B1B68597B41F020010D20FEF798
:105800002BFF0122604B1A70032038BD00235B4A36
:105810001370594A13805F4B1B68597B41F020017C
:105820000D20FEF719FF0122574B1A70062038BDD4
:10583000584D2968012481F84040202381F84130E7
:10584000022240314020FEF7E7FE2B68982183F8C2
:1058500035103520FEF700FF0320FFF759FD082221
:10586000494B1A7000224C4B1A70204638BDFEF787
:1058700055FF01287CD1474B1B6893F93030002B32
:1058800003DA01214548FEF71BFF444B1A88531EDB
:105890009BB23F2B02D8424B1A7002E02022404BB1
:1058A0001A703F4C21783648FEF70AFF3A4A1178C1
:1058B00023780B441370FBF7F3FD3A4B1860092271
:1058C000314B1A70012038BDFEF714FFE8B9334B95
:1058D0001A88314B1B78D01A3149097888420ADD81
:1058E00027481844FEF7ECFE2B4A11782C4B1B7806
:1058F0000B44137009E0D11AC9B221481844FEF7CD
:10590000DFFE264B1A88244B1A70FEF7E9FE0128A9
:1059100009D1FBF7C5FD234B18600A221A4B1A70F8
:105920000120FFF7F5FCFBF7BBFD1E4B1B68C01AFF
:10593000B0F57A7F1ED90B22134B1A70012038BDA7
:105940000022114B1A70042038BD00220E4B1A7031
:10595000052038BD012038BD012038BD012038BDEB
:10596000012038BD012038BD012038BD012038BDDF
:10597000012038BD012038BD1C1100203A11002043
:10598000101000203B110020391100203C11002094
:1059900010110020201400201E11002028110020CA
:1059A000B00000202011002008B50A4B1B68DB69FD
:1059B00098470228F9D14FF6FF710748FEF7E2FD3C
:1059C00083B2002BF1D0034B1B681B6981B20348E3
:1059D0009847EAE7441100202414002025140020F1
:1059E00000B583B0FEF714FA134B1860FEF7E0FD24
:1059F0000023019308220092402210491048FDF72D
:105A000085F80D4B1B68DB69984718B90A4B1B6872
:105A10005B689847084B1B68DB6998470128F0D101
:105A2000054B1B68DC6841F28833002242F23031BA
:105A30000448A047E5E700BF4411002004670008C0
:105A4000A959000818670008002103E00B4B5B58B8
:105A5000435004310A480B4B42189A42F6D30A4A83
:105A600002E0002342F8043B084B9A42F9D3FCF7CA
:105A700057FB00F00FF8FAF7BDFF704764670008A6
:105A8000000000201801002018010020E814002068
:105A9000FEE700000E4B70B51E460E4C0025E41AC2
:105AA000A410A54204D056F8253098470135F8E7F0
:105AB00000F0D4FC084B094C1E46E41AA410002543
:105AC000A54204D056F8253098470135F8E770BD57
:105AD0005C6700085C6700085C6700086067000896
