:020000040800F2
:1000000000500020AD3A0008B5030008B90300080D
:10001000BD030008C1030008C5030008000000007C
:10002000000000000000000000000000512E000849
:10003000C903000800000000F12E0008CD030008ED
:10004000F53A0008F53A0008F53A0008F53A0008D4
:10005000F53A0008F53A0008F53A0008F53A0008C4
:10006000F53A0008F53A0008F53A0008F53A0008B4
:10007000F53A0008F53A0008F53A0008D9030008F7
:10008000F53A0008F53A0008F53A0008F53A000894
:10009000F53A0008F53A0008F53A0008F53A000884
:1000A000F53A0008F53A0008F53A0008F53A000874
:1000B000F53A0008F53A0008F53A0008F53A000864
:1000C000F53A0008F53A0008F53A0008F53A000854
:1000D000F53A0008E9030008F53A0008F53A000887
:1000E000F53A0008F53A0008F53A0008000000006B
:1000F0000000000000000000000000000000000000
:0C01000000000000000000005FF808F1A3
:1001100010B5054C237833B9044B13B10448AFF341
:1001200000800123237010BDD400002000000000D7
:1001300020440008084B10B51BB108490848AFF32C
:1001400000800848036803B910BD074B002BFBD0A3
:10015000BDE81040184700BF00000000D800002094
:1001600020440008D400002000000000034613F8DB
:10017000012B002AFBD1181A0138704730B591B015
:100180002822002106A803F0E8FC00240194029430
:10019000039404940594012206924FF4803307934C
:1001A0000A9202250D950E934FF4E0130F9306A8C3
:1001B00000F080FD0F230193029503944FF48063B8
:1001C00004930594294601A800F0ACFF11B030BD9E
:1001D00008B501F0B1FB00F033FDFFF7CFFF00F0F1
:1001E0000DF801F0F3FB00F06FF802F01BFF01F0D7
:1001F0000DFC02F0A1FCFEE7704700BF2DE9F041C5
:1002000088B0002404940594069407942A4B9A69B4
:1002100042F010029A619A6902F010020092009A6C
:100220009A6942F020029A619A6902F020020192D2
:10023000019A9A6942F004029A619A6902F00402F2
:100240000292029A9A6942F008029A619B6903F04D
:1002500008030393039BDFF86C8022464FF40051A0
:10026000404601F045F9154D22464FF4807128466D
:1002700001F03EF94FF400530493012705970694CB
:100280000226079604A9404601F046F84FF4E043E1
:1002900004930594069404A9094801F03DF84FF42D
:1002A0008073049305970694079604A9284601F0E5
:1002B00033F808B0BDE8F0810010024000080140AA
:1002C000000C01400010014008B50A480A4B0360C9
:1002D0004FF4E133436000238360C36003610C2269
:1002E00042618361C36100F015FA08B1FFF784FF32
:1002F00008BD00BF000F00200038014070B586B077
:10030000002302930393049305930268254B9A42BA
:1003100045D1044603F558439A6942F480429A61F4
:100320009A6902F480420092009A9A6942F00402AB
:100330009A619B6903F004030193019B4FF40073DE
:1003400002930223039303230593174E02A9304619
:1003500000F0E2FF4FF480630293002503950495BB
:1003600002A9304600F0D8FF1048114B03604560E9
:1003700085608023C360056145618561C56101F0C9
:10038000D7F808B1FFF738FF084B63635C620022BF
:100390000521252001F056FA252001F085FA06B046
:1003A00070BD00BF0038014000080140BC0E0020B5
:1003B00058000240704700BFFEE700BFFEE700BFE5
:1003C000FEE700BFFEE700BF704700BF08B500F0C2
:1003D00049FC02F0D9FB08BD08B5024801F07EF9DE
:1003E00008BD00BFBC0E002008B5034803F0A8FA02
:1003F000024800F069FB08BDA00F0020000F00209C
:1004000000B583B0114B9A6942F001029A619A6972
:1004100002F001020092009ADA6942F08052DA6139
:10042000DB6903F080530193019B00220F216FF0E1
:10043000010001F007FA064A536823F0E06343F035
:100440000073536003B05DF804FB00BF001002406E
:10045000000001400268D36823F0C003D36020236A
:1004600080F83930704700BF0268D36823F4907376
:10047000D3600268536923F001035361202380F89D
:100480003A30704790F83930DBB2212B2BD183689A
:10049000B3F5805F0FD1036A02681B88C3F30803BA
:1004A000536003691BB9036A0233036209E0036AFC
:1004B0000133036205E00268036A591C01621B787C
:1004C0005360C38C9BB2013B9BB2C3846BB902687F
:1004D000D36823F08003D3600268D36843F04003FD
:1004E000D36000207047022070470020704700BF93
:1004F0002DE9F843814601680B6923F44052C36833
:1005000013430B6181680369194343691943006808
:10051000C26822F4B05323F00C030B43C360D9F834
:1005200000104B6923F44072D9F8183013434B6123
:10053000D9F800505B4B9D4259D100F0DDFE00EB35
:10054000800000EB8000D9F80440A400B0FBF4F474
:10055000554EA6FB04346409240100F0CDFE00EBE7
:10056000800000EB8000D9F804309B00B0FBF3F76B
:1005700000F0C2FE00EB800000EB8000D9F80430F0
:100580009B00B0FBF3F3A6FB03235B094FF0640869
:1005900008FB13731B013233A6FB03235B0903F033
:1005A000F0031C4400F0A8FE00EB800000EB80008C
:1005B000D9F804309B00B0FBF3F700F09DFE00EB90
:1005C000800000EB8000D9F804309B00B0FBF3F30F
:1005D000A6FB03235B0908FB13731B013233A6FB45
:1005E0000323C3F343131C44AC60BDE8F88300F05D
:1005F00073FE00EB800000EB8000D9F80440A400FB
:10060000B0FBF4F4284EA6FB04346409240100F086
:1006100063FE00EB800000EB8000D9F804309B0003
:10062000B0FBF3F700F058FE00EB800000EB800019
:10063000D9F804309B00B0FBF3F3A6FB03235B095E
:100640004FF0640808FB13731B013233A6FB03232E
:100650005B0903F0F0031C4400F03EFE00EB800059
:1006600000EB8000D9F804309B00B0FBF3F700F0FA
:1006700033FE00EB800000EB8000D9F804309B00D3
:10068000B0FBF3F3A6FB03235B0908FB13731B0109
:100690003233A6FB0323C3F343131C44AC60BDE811
:1006A000F88300BF003801401F85EB512DE9F04170
:1006B00005460F4616469846069C1EE0B4F1FF3FDD
:1006C0001BD02CB100F0DAFAC8EB0000844214D23F
:1006D0002A68D36823F4D073D3602A68536923F05F
:1006E00001035361202385F8393085F83A3000231F
:1006F00085F838300320BDE8F0812B681B6837EAA5
:1007000003030CBF01230023B342D7D00020BDE870
:10071000F08100BF68B310B5044690F8393013F08B
:10072000FF0F04D1002380F83830FFF7E7FD2423C2
:1007300084F839302268D36823F40053D36020460C
:10074000FFF7D6FE2268136923F4904313612268F1
:10075000536923F02A0353612268D36843F400539A
:10076000D3600020E063202384F8393084F83A30E5
:1007700010BD0120704700BF2DE9F04182B01E4638
:1007800090F83930DBB2202B56D104460D46904606
:10079000002953D0002A53D090F83830012B51D083
:1007A000012380F838300023C363212380F83930D7
:1007B00000F064FA0746A4F82480A4F8268027E015
:1007C000E38C9BB2013B9BB2E384A368B3F5805FEB
:1007D00012D100963B46002280212046FFF766FF9B
:1007E00090BB22682B88C3F30803536023690BB9BD
:1007F00002350DE001350BE000963B4600228021DA
:100800002046FFF753FF08BB23682A785A6001355A
:10081000E38C9BB2002BD3D100963B4600224021B3
:100820002046FFF743FF034690B9202284F8392081
:10083000002284F838200CE002230AE0012308E0BB
:10084000012306E0022304E0032302E0032300E087
:100850000323184602B0BDE8F08100BF30B583B075
:1008600090F83A40E4B2202C3DD100293DD0002A36
:100870003DD090F83830012B3BD013460A46044651
:10088000012180F83810826283850025C56322210A
:1008900080F83A10416B18488862616B1748C8624B
:1008A000616B17480863616B4D6321680431606BAD
:1008B00000F076FE019523681A6801925A68019249
:1008C000019A84F83850DA6842F48072DA6022685B
:1008D000536943F0010353612268536943F04003B5
:1008E0005361284606E0022004E0012002E00120D6
:1008F00000E0022003B030BD85090008690A000845
:10090000790A000810B5044601684B6903F08002BB
:1009100090F83930DBB2212B0BD152B14B6923F067
:1009200080034B61006B08B100F074FE2046FFF7B6
:1009300091FD21684B6903F0400294F83A30DBB234
:10094000222B0BD152B14B6923F040034B61606BFA
:1009500008B100F05FFE2046FFF786FD002010BDC5
:10096000704700BF08B50168CB6823F04003CB6037
:10097000202380F83930FFF7F3FF002008BD00BFC7
:10098000704700BF08B5436A0268126812F0200F72
:1009900013D10022DA851968CA6822F48072CA600D
:1009A00019684A6922F001024A6119684A6922F00D
:1009B00040024A61202283F83A201846FFF7E0FF00
:1009C00008BD00BF08B590F83A30DBB2222B44D105
:1009D0008368B3F5805F13D1826A036943B9036802
:1009E0005B68C3F308031380836A0233836218E0F1
:1009F00003685B68DBB21380836A0133836210E0B3
:100A0000036933B9836A5A1C8262026852681A7099
:100A100007E0826A531C836203685B6803F07F030C
:100A20001370C38D9BB2013B9BB2C385BBB90268F7
:100A3000D36823F02003D3600268D36823F4807363
:100A4000D3600268536923F001035361202380F8C7
:100A50003A30FFF795FF002008BD022008BD0020B6
:100A600008BD00BF704700BF08B5406AFFF7FAFF36
:100A700008BD00BF704700BF10B5446A23685B69BA
:100A800003F0800294F83930DBB2212B05D122B17A
:100A90000023E3842046FFF7DDFC23685B6903F055
:100AA000400294F83A30DBB2222B05D122B1002368
:100AB000E3852046FFF7D8FCE36B43F01003E363C4
:100AC0002046FFF7D7FF10BD10B504460268136833
:100AD000D168526913F00F0009D113F0200F06D02E
:100AE00011F0200F03D02046FFF76CFF10BD002847
:100AF00062D012F0010202D111F4907F5CD013F0A9
:100B0000010F06D011F4807F03D0E06B40F00100AC
:100B1000E06313F0040F04D01AB1E06B40F0020060
:100B2000E06313F0020F04D01AB1E06B40F0040050
:100B3000E06313F0080F04D01AB1E26B42F0080230
:100B4000E263E26B002A4AD013F0200F05D011F0C7
:100B5000200F02D02046FFF735FF23685B6903F0C2
:100B60004003E26B12F0080F00D1FBB12046FFF703
:100B70007BFC23685A6912F0400F13D05A6922F0A7
:100B800040025A61636B4BB1154A5A63606B00F0C7
:100B900059FD20B3606B436B984710BD2046FFF7AB
:100BA00069FF10BD2046FFF765FF10BD2046FFF727
:100BB00061FF0023E36310BD13F0800F06D011F036
:100BC000800F03D02046FFF75DFC10BD13F0400FEF
:100BD00005D011F0400F02D02046FFF7C3FE10BD34
:100BE000E50B000808B5406A0023C385C384FFF7FE
:100BF00041FF08BD10B504460E4B18784FF47A73C8
:100C0000B3FBF0F30C4A1068B0FBF3F000F058FEB1
:100C100058B90F2C0BD8002221464FF0FF3000F0BE
:100C200011FE064B1C60002010BD012010BD0120EC
:100C300010BD00BF040000200800002000000020BC
:100C400008B5074A136843F010031360032000F04F
:100C5000E7FD0F20FFF7CEFFFFF7D2FB002008BD16
:100C600000200240034A1368034909780B441360CB
:100C7000704700BF400F002004000020014B18689F
:100C8000704700BF400F002082B0084B1B68084A25
:100C9000A2FB03235B0A00FB03F0019000BF019B52
:100CA0005A1E0192002BF9D102B0704708000020B3
:100CB000D34D621070B582B00446036813F0010F83
:100CC0006BD0A84B5B6803F00C03042B0AD0A54B38
:100CD0005B6803F00C03082B0DD1A24B5B6813F487
:100CE000803F08D09F4B1B6813F4003F55D06368CA
:100CF000002B52D1B8E16368B3F5803F05D1994A22
:100D0000136843F48033136026E063B903F1804332
:100D100003F504331A6822F480321A601A6822F448
:100D200080221A6018E0B3F5A02F0CD103F18043A4
:100D3000A3F53C331A6842F480221A601A6842F420
:100D400080321A6008E0874B1A6822F480321A60F9
:100D50001A6822F480221A6063687BB1FFF78EFF65
:100D6000054605E0FFF78AFF401B642800F27E81FC
:100D70007C4B1B6813F4003FF4D00EE0FFF77EFFBE
:100D8000054605E0FFF77AFF401B642800F27081FA
:100D9000744B1B6813F4003FF4D1236813F0020F67
:100DA00050D0704B5B6813F00C0F0AD06D4B5B6832
:100DB00003F00C03082B16D16A4B5B6813F4803FD9
:100DC00011D1684B1B6813F0020F03D02369012B6C
:100DD00040F05081634A136823F0F803616943EAE5
:100DE000C10313602EE02369D3B101225E4B1A6068
:100DF000FFF744FF054605E0FFF740FF401B0228D0
:100E000000F23A81574B1B6813F0020FF4D0554A99
:100E1000136823F0F803616943EAC103136011E02A
:100E20000022514B1A60FFF729FF054605E0FFF746
:100E300025FF401B022800F221814A4B1B6813F05A
:100E4000020FF4D1236813F0080F29D0A369ABB1C6
:100E50000122464B1A60FFF711FF054605E0FFF738
:100E60000DFF401B022800F20B813E4B5B6A13F022
:100E7000020FF4D00120FFF707FF11E000223B4BE7
:100E80001A60FFF7FBFE054605E0FFF7F7FE401B83
:100E9000022800F2F780334B5B6A13F0020FF4D1A3
:100EA000236813F0040F00F089802E4BDB6913F0E8
:100EB000805F0BD12B4BDA6942F08052DA61DB693B
:100EC00003F080530193019B012500E00025284B8E
:100ED0001B6813F4807F13D1254A136843F4807391
:100EE0001360FFF7CBFE064605E0FFF7C7FE801B49
:100EF000642800F2C9801E4B1B6813F4807FF4D075
:100F0000E368012B05D1174A136A43F0010313620A
:100F100022E063B903F1804303F504331A6A22F037
:100F200001021A621A6A22F004021A6214E0052B06
:100F300009D10C4B1A6A42F004021A621A6A42F092
:100F400001021A6208E0074B1A6A22F001021A62D3
:100F50001A6A22F004021A62E368CBB1FFF78EFE30
:100F600006460FE000100240000042428004424268
:100F700000700040FFF782FE801B41F288339842E8
:100F800000F28480494B1B6A13F0020FF2D00FE08D
:100F9000FFF774FE064606E0FFF770FE801B41F285
:100FA0008833984274D8414B1B6A13F0020FF3D177
:100FB00025B13E4AD36923F08053D361E369002B06
:100FC00068D03A4A526802F00C02082A64D0022B18
:100FD00037D10022364B1A60FFF750FE054604E079
:100FE000FFF74CFE401B022858D8304B1B6813F00B
:100FF000007FF5D1236AB3F5803F06D12B494B68BA
:1010000023F40032A36813434B602848436823F459
:101010007411236A626A13430B4343600122244B19
:101020001A60FFF72BFE044604E0FFF727FE001BC3
:10103000022835D81D4B1B6813F0007FF5D0002027
:1010400031E000221A4B1A60FFF718FE044604E054
:10105000FFF714FE001B022824D8144B1B6813F062
:10106000007FF5D100201EE001201CE003201AE0E3
:10107000032018E0012016E0032014E0032012E012
:10108000032010E003200EE003200CE003200AE020
:10109000032008E0002006E0012004E0032002E035
:1010A000032000E0032002B070BD00BF001002402A
:1010B0006000424230B486B0164D02AC28686968C0
:1010C000AA68EB680FC42B8AADF80430124B5B683A
:1010D00003F00C02082A19D1C3F3834206A90A447B
:1010E00012F8100C13F4803F0CD00B4B5B68C3F369
:1010F00040430B4413F8142C084B03FB00F0B0FBE7
:10110000F2F004E0064B03FB00F000E0034806B0F9
:1011100030BC7047384400080010024000127A00CA
:1011200000093D0070B5654B1B6803F007038B4257
:101130000BD2624A136823F007030B431360136852
:1011400003F00703994240F0A880036813F0020FF0
:1011500017D013F0040F04D0594A536843F4E063E6
:101160005360036813F0080F04D0554A536843F4E2
:1011700060535360524C636823F0F002836813435A
:1011800063600D460446036813F0010F4DD04268BA
:10119000012A05D14A4B1B6813F4003F0DD17EE0B4
:1011A000022A05D1464B1B6813F0007F05D178E079
:1011B000434B1B6813F0020F75D041494B6823F075
:1011C000030313434B60FFF759FD06466368012B89
:1011D0000ED106E0FFF752FD801B41F288339842A2
:1011E00063D8374B5B6803F00C03042BF2D11CE08F
:1011F000022B15D106E0FFF741FD801B41F2883339
:10120000984254D82E4B5B6803F00C03082BF2D1A4
:101210000BE0FFF733FD801B41F28833984248D83A
:10122000274B5B6813F00C0FF3D1244B1B6803F0C2
:1012300007039D420AD2214A136823F007032B4378
:101240001360136803F007039D4234D1236813F041
:10125000040F06D01A494B6823F4E062E368134395
:101260004B60236813F0080F07D0154A536823F426
:101270006053216943EAC1035360FFF71BFF104B22
:101280005B68C3F303130F4AD35CD8400E4B18605E
:101290000F20FFF7AFFC002070BD012070BD0120C2
:1012A00070BD012070BD012070BD032070BD032002
:1012B00070BD032070BD012070BD00BF0020024042
:1012C000001002406044000808000020014B18682C
:1012D000704700BF0800002008B5FFF7F7FF044B78
:1012E0005B68C3F30223034AD35CD84008BD00BF48
:1012F000001002407044000808B5FFF7E7FF044BF8
:101300005B68C3F3C223034AD35CD84008BD00BF67
:101310000010024070440008F0B583B00026344647
:10132000D5E00122A2400B6813409A4240F0CE80E3
:101330004D68122D2DD00BD8022D27D003D85DB3C8
:10134000012D1ED035E0032D30D0112D1BD030E003
:10135000614FBD4220D008D8A7F58017BD421BD0F1
:1013600007F58037BD4224D116E05C4FBD4213D053
:1013700007F58037BD420FD0A7F58017BD4218D1C1
:101380000AE0CE6815E0CE68043612E0CE68083672
:101390000FE0CE680C360CE08D684DB1012D02D106
:1013A0000261082605E04261082602E0002600E00E
:1013B0000426FF2B01D8864601E000F1040EFF2B26
:1013C00001D8A20002E0A4F108029200DEF8007049
:1013D0000F25954027EA050506FA02F22A43CEF8C2
:1013E00000204A6812F0805F70D03D4A956945F050
:1013F00001059561926902F001020192019AA70824
:10140000BD1C384A52F8255004F0030292004FF0F8
:101410000F0E0EFA02FE25EA0E0E334DA8420DD035
:1014200005F58065A8420BD005F58065A84209D076
:1014300005F58065A84207D1032506E0002504E0F4
:10144000012502E0022500E0042505FA02F24EEA39
:1014500002020237234D45F827204A6812F4803FE4
:1014600005D005F580652A681A432A6004E01F4DFF
:101470002A6822EA03022A604A6812F4003F04D074
:101480001A4D6A681A436A6004E0184D6A6822EAD5
:1014900003026A604A6812F4801F04D0134DAA68E0
:1014A0001A43AA6004E0114DAA6822EA0302AA6066
:1014B0004A6812F4001F04D00C4DEA681343EB6035
:1014C00004E00A4DEA6822EA0303EB6001340F2CC2
:1014D0007FF627AF03B0F0BD0000211000003110EF
:1014E00000100240000001400008014000040140DB
:1014F0000AB101617047090401617047C36859402E
:10150000C160704770B4C56B066C0124B4406C6058
:10151000046863604368102B04D103689A60036811
:10152000D96003E0036899600368DA6070BC7047B3
:1015300058B310B403460068164A02441649A1FB8A
:101540000212120992001A64144ADA63022283F822
:101550002120026822F47F5121F030015C689A68F2
:101560001443DA6814431A6914435A6914439A6994
:101570001443DA6922430A4302600020986301227F
:1015800083F8212083F8200001E00120704710BC7F
:10159000704700BFF8FFFDBFCDCCCCCC00000240AF
:1015A00038B590F82040012C32D0012480F820403A
:1015B00090F82140012C26D10446022084F8210015
:1015C0000020A0632568286820F0010028602046DC
:1015D000FFF798FFE36A2BB12268136843F00E030C
:1015E000136009E02268136823F004031360226883
:1015F000136843F00A0313602268136843F0010381
:101600001360002038BD002380F82030022038BD50
:10161000022038BD034601680A6822F00E020A6003
:1016200001680A6822F001020A60C06B1A6C01218D
:1016300001FA02F2426083F82110002083F82000B2
:10164000704700BF08B590F82130022B03D0042367
:101650008363012008BD0268136823F00E03136042
:101660000268136823F0010313600368194A934268
:1016700011D01432934210D0143293420FD014324E
:1016800093420FD0143293420FD0143293420FD1B1
:101690004FF480120EE001220CE010220AE04FF419
:1016A000807207E04FF4805204E04FF4803201E092
:1016B0004FF08072084B5A60012380F821300023DC
:1016C00080F82030436B13B19847002008BD0020FC
:1016D00008BD00BF080002400000024038B5C36BDF
:1016E0001A6804682568016C04238B401A4236D0BE
:1016F00015F0040F33D0236813F0200F03D12368B3
:1017000023F0040323600368434A934211D0143248
:10171000934210D0143293420FD0143293420FD020
:10172000143293420FD0143293420FD14FF48002FF
:101730000EE004220CE040220AE04FF4806207E051
:101740004FF4804204E04FF4802201E04FF08062C9
:10175000324B5A60C36A002B5CD0984738BD0223D5
:101760008B401A423BD015F0020F38D0236813F09B
:10177000200F06D1236823F00A032360012380F899
:1017800021300368244A934211D01432934210D07E
:10179000143293420FD0143293420FD0143293423A
:1017A0000FD0143293420FD14FF400120EE00222F8
:1017B0000CE020220AE04FF4007207E04FF40052E0
:1017C00004E04FF4003201E04FF00072134B5A6016
:1017D000002380F82030836AE3B1984738BD08239E
:1017E00003FA01F10A4215D015F0080F12D0236850
:1017F00023F00E032360C16B026C012303FA02F293
:101800004A60836380F82130002380F82030036B26
:1018100003B1984738BD00BF0800024000000240F5
:10182000074AD36823F4E0631B041B0C000200F496
:10183000E060184340F0BF6040F40030D060704773
:1018400000ED00E030B4164BDB68C3F30223C3F1B4
:101850000704042C28BF04241D1D062D01D9DD1EFC
:1018600000E00025012303FA04F4013C2140A940D3
:10187000AB40013B1A400A43002806DA00F00F0093
:101880001201D2B2074B1A5407E01201D2B200F192
:10189000604000F5614080F8002330BC704700BF15
:1018A00000ED00E014ED00E0420900F01F0001230C
:1018B00003FA00F0014B43F82200704700E100E01A
:1018C0000138B0F1807F0AD2064B5860F021064AF9
:1018D00082F823100020986007221A6070470120C8
:1018E000704700BF10E000E000ED00E00F4B1A6809
:1018F00042F001021A6059680D4A0A405A601A689B
:1019000022F0847222F480321A601A6822F4802253
:101910001A605A6822F4FE025A604FF41F029A605D
:101920004FF00062034B9A60704700BF0010024006
:101930000000FFF800ED00E01F4B5B6803F00C03B4
:10194000042B06D0082B08D03BBB1C4A1C4B1A604A
:1019500026E01A4A1A4B1A6022E0174A5368526866
:10196000C3F38343023312F4803F05D1154A02FBCF
:1019700003F3134A136013E00F4A526812F4003F56
:1019800005D0104A02FB03F30D4A136008E00B4A2E
:1019900002FB03F30A4A136002E0084A084B1A608C
:1019A000054B5B68C3F30313074AD15C044A136811
:1019B000CB401360704700BF0010024000127A0055
:1019C0000800002000093D006044000800B583B015
:1019D0000A4B5A6942F001025A615B6903F0010344
:1019E0000193019B002205210F20FFF72BFF0F2001
:1019F000FFF75AFF03B05DF804FB00BF0010024080
:101A000008B5012001F0B8F8FBE700BF30B589B098
:101A100003AC0B4D0FCD0FC42B682360002103A82E
:101A200001F090F8074B1860002301930822009200
:101A300080220549054800F04FFC09B030BD00BFC9
:101A40004C440008440F002078440008493A00083C
:101A500000F1080343604FF0FF328260C36003610E
:101A600000230360704700BF00230361704700BF7D
:101A700043684B609A688A609A685160996008610F
:101A8000036801330360704730B40D68B5F1FF3F60
:101A900001D1026907E000F1080200E01A4653682C
:101AA0001C68A542FAD253684B6099608A60516005
:101AB000086103680133036030BC70470369426802
:101AC000816891608268416851605A68904201D192
:101AD00082685A60002202611868013818607047F5
:101AE00010B5044601F0C6F9A26BE36B9A4201D12E
:101AF000012400E0002401F0DFF9204610BD00BF02
:101B000010B5044601F0B6F9A36B0BB9012400E04F
:101B1000002401F0D1F9204610BD00BF70B5044685
:101B20001646856B026C3AB9036843BB406800F007
:101B300095FF0023636029E06EB9806802F002F827
:101B4000A268236C1344A3606268934219D323688C
:101B5000A36000201AE0C06801F0F4FF236C5B4230
:101B6000E2681A44E26021688A4202D26268134441
:101B7000E360022E07D145B1013D002006E00020C0
:101B800004E0002002E0002000E000200135A56311
:101B900070BD00BF026C72B110B50346C468144436
:101BA000C4604068844201D31868D8600846D96888
:101BB00001F0C8FF10BD704738B5054601F05AF96D
:101BC00095F8454064B20AE06B6A53B105F1240010
:101BD00000F03EFE08B100F0D7FE013C64B2002CDC
:101BE000F2DCFF2385F8453001F066F901F042F997
:101BF00095F8444064B20AE02B6953B105F1100036
:101C000000F026FE08B100F0BFFE013C64B2002CDB
:101C1000F2DCFF2385F8443001F04EF938BD00BFF7
:101C200038B540B94FF0500383F31188BFF36F8F7D
:101C3000BFF34F8FFEE704460D4601F01BF9216804
:101C4000E26B236C03FB021060600020A063A160C4
:101C5000013A02FB0313E360FF2384F8443084F865
:101C600045307DB92369ABB104F1100000F0F0FDFF
:101C700080B14FF08052094B1A60BFF34F8FBFF312
:101C80006F8F07E004F11000FFF7E2FE04F124007B
:101C9000FFF7DEFE01F010F9012038BD04ED00E091
:101CA00010B5029B0C4609B91B6000E01A60D863AE
:101CB0001C6401211846FFF7B3FF10BD40B94FF077
:101CC000500383F31188BFF36F8FBFF34F8FFEE78D
:101CD000F0B583B0034611B101FB00F000E0002035
:101CE0001D4617460C46483000F0B2FF064638B194
:101CF00000903B4600F1480221462846FFF7D0FFFE
:101D0000304603B0F0BD00BFF0B585B0019240B9D8
:101D10004FF0500383F31188BFF36F8FBFF34F8FE2
:101D2000FEE7044619B9026C1AB9012202E0012249
:101D300000E0002242B94FF0500383F31188BFF353
:101D40006F8FBFF34F8FFEE7022B03D1E26B012AA7
:101D500002D102E0012200E0002242B94FF050031C
:101D600083F31188BFF36F8FBFF34F8FFEE71D46DC
:101D70000E4600F00FFE18B9019B1BB9012302E0CB
:101D8000012300E0002343B94FF0500383F311888F
:101D9000BFF36F8FBFF34F8FFEE7002701F06AF8A4
:101DA000A26BE36B9A4201D3022D21D12A46314620
:101DB0002046FFF7B3FE636A6BB104F1240000F024
:101DC00047FD88B14FF08052324B1A60BFF34F8FFE
:101DD000BFF36F8F08E038B14FF080522D4B1A607F
:101DE000BFF34F8FBFF36F8F01F066F801204EE015
:101DF000019B1BB901F060F8002048E01FB902A860
:101E000000F06CFD012701F057F800F043FB01F0F2
:101E100031F894F844305BB2B3F1FF3F02D10023B4
:101E200084F8443094F845305BB2B3F1FF3F02D1FF
:101E3000002384F8453001F03FF801A902A800F022
:101E400063FDF0B92046FFF74BFEA0B1019904F104
:101E5000100000F0E5FC2046FFF7AEFE00F0B4FBFA
:101E600000289BD14FF080520A4B1A60BFF34F8F6E
:101E7000BFF36F8F92E72046FFF79EFE00F0A4FBB2
:101E80008CE72046FFF798FE00F09EFB002005B08F
:101E9000F0BD00BF04ED00E048B108B5002141608D
:101EA0000160C1600B460A46FFF72EFF08BD704770
:101EB00010B5024600210120FFF700FF0446FFF79E
:101EC000EBFF204610BD00BF2DE9F04184B0019228
:101ED00040B94FF0500383F31188BFF36F8FBFF306
:101EE0004F8FFEE7044619B9026C1AB9012202E0CD
:101EF000012200E0002242B94FF0500383F3118821
:101F0000BFF36F8FBFF34F8FFEE71F46884600F089
:101F100041FD18B9019B1BB9012302E0012300E038
:101F2000002343B94FF0500383F31188BFF36F8F41
:101F3000BFF34F8FFEE7002600F09CFFA56B85B333
:101F4000E66841462046FFF725FEB7B9013DA56387
:101F5000236813B900F0DCFD60602369EBB104F184
:101F6000100000F075FCC0B14FF080523D4B1A607C
:101F7000BFF34F8FBFF36F8F0FE0E660636A63B10B
:101F800004F1240000F064FC38B14FF08052354B6E
:101F90001A60BFF34F8FBFF36F8F00F08DFF0120EA
:101FA0005DE0019B1BB900F087FF002057E01EB9E0
:101FB00002A800F093FC012600F07EFF00F06AFA10
:101FC00000F058FF94F844305BB2B3F1FF3F02D108
:101FD000002384F8443094F845305BB2B3F1FF3FFE
:101FE00002D1002384F8453000F066FF01A902A861
:101FF00000F08AFC38BB2046FFF782FDE8B1236879
:1020000033B900F037FF606800F0D4FC00F054FFF3
:10201000019904F1240000F003FC2046FFF7CCFDF9
:1020200000F0D2FA002887D14FF080520D4B1A6091
:10203000BFF34F8FBFF36F8F7EE72046FFF7BCFDE6
:1020400000F0C2FA78E72046FFF7B6FD00F0BCFAD0
:102050002046FFF755FD00283FF46EAF002004B086
:10206000BDE8F08104ED00E00A4B1B681B680BB96A
:10207000012300E0002323B14FF0FF32064B1A602A
:102080007047044B1B68DB68DB685A68024B1A60B8
:10209000704700BFF4000020D001002010B50446B6
:1020A000006B00F057FE204600F054FE10BD00BF4C
:1020B0002DE9F04780469946089D099F0A9C236BAD
:1020C00002F18042013A03EB820626F00706002364
:1020D00006E0C85CE21882F83400CA5C12B1013331
:1020E0000F2BF6D9002384F84330062D00D906259E
:1020F000E56265644FF0000AC4F848A0201DFFF7B0
:10210000B3FC04F11800FFF7AFFC2461C5F107052B
:10211000A5616462C4F84CA084F850A04A464146C8
:10212000304600F07DFE206007B13C60BDE8F087DE
:1021300038B5002407E004EB840293000E481844ED
:10214000FFF786FC0134062CF5D90C4D2846FFF725
:102150007FFC0B4C2046FFF77BFC0A48FFF778FC1E
:102160000948FFF775FC0948FFF772FC084B1D6032
:10217000084B1C6038BD00BF18010020D8010020AA
:10218000EC010020B4010020FC000020000200202F
:10219000F40000201001002010B5044600F06AFE93
:1021A000204A1368013313601F4B1B683BB91E4B59
:1021B0001C601368012B0DD1FFF7BAFF0AE01B4B1F
:1021C0001B683BB9184B1B68DA6AE36A9A4201D86C
:1021D000154B1C60164A136801331360E36A012231
:1021E00002FA03F1134802680A43026003EB830317
:1021F0009A00211D10481044FFF73AFC00F05CFEE5
:102200000A4B1B686BB1084B1B68DA6AE36A9A4297
:1022100007D24FF08052094B1A60BFF34F8FBFF3C4
:102220006F8F10BDAC010020B0010020F80000202D
:10223000D4010020140200201801002004ED00E069
:1022400070B504460E461D4B1D681D4B18680430C2
:10225000FFF734FC50B91A4B1B68DA6A012303FA02
:1022600002F218490B6823EA02030B60B4F1FF3F46
:1022700007D136B1124B196804311348FFF7F8FB48
:1022800070BD2C440E4B1B685C60A54207D90F4BF8
:1022900018680B4B19680431FFF7F6FB70BD0C4B47
:1022A0001868074B19680431FFF7EEFB094B1B68F0
:1022B0009C4201D2074B1C6070BD00BFCC010020C6
:1022C000B0010020140200200002002010010020B4
:1022D000F4000020D00100202DE9F04385B006462F
:1022E0000F4615469846900000F0B2FC60B181465A
:1022F000542000F0ADFC044610B1C0F8309004E06A
:10230000484600F027FD00E000248CB10023039331
:1023100002940D9B01930C9B009343462A46394639
:102320003046FFF7C5FE2046FFF736FF012001E0EB
:102330004FF0FF3005B0BDE8F08300BF38B504466C
:1023400000F098FD0CB92A4B1C68251D2846FFF7A4
:10235000B5FB70B9E26A02EB82018B002549CB58CC
:102360003BB9012303FA02F223490B6823EA020373
:102370000B60A36A1BB104F11800FFF79FFB1F4A13
:102380001368013313601A4B1B689C4208D129461D
:102390001B48FFF76DFB1B4A13680133136008E00D
:1023A000194A1368013B13602046FFF777FEFFF7D9
:1023B0005BFE00F081FD154B1B68BBB10C4B1B682D
:1023C0009C4213D1124B1B6843B14FF0500383F36F
:1023D0001188BFF36F8FBFF34F8FFEE74FF080522E
:1023E0000C4B1A60BFF34F8FBFF36F8F38BD00BF28
:1023F000B00100201801002014020020D4010020A8
:10240000FC000020A8010020AC010020F800002002
:10241000A401002004ED00E000B583B0174B019348
:1024200000230093802216491648FFF755FF012824
:1024300014D14FF0500383F31188BFF36F8FBFF3B4
:102440004F8F4FF0FF32104B1A6001220F4B1A6072
:1024500000220F4B1A6000F099FD0BE0B0F1FF3F36
:1024600008D14FF0500383F31188BFF36F8FBFF390
:102470004F8FFEE703B05DF804FB00BFC8010020EA
:102480009444000865270008D0010020F8000020CF
:10249000CC010020024A136801331360704700BF6B
:1024A000A4010020F8B53D4B1B68002B69D13C4BC3
:1024B0001D6801351D60C5B93A4B1B681B6843B1E7
:1024C0004FF0500383F31188BFF36F8FBFF34F8F2B
:1024D000FEE7344A1168344B186810601960334ABB
:1024E000136801331360FFF7BFFD314B1B689D423A
:1024F00003D200243AE0012400E00024294B1B68A9
:102500001B680BB9012300E0002323B14FF0FF3219
:10251000274B1A602AE0234B1B68DB68DE68736870
:102520009D4202D2224A136020E0371D3846FFF751
:10253000C5FAB36A1BB106F11800FFF7BFFAF36AD8
:10254000012202FA03F11B4802680A43026003EB0E
:1025500083039A00394618481044FFF789FAF26A53
:10256000164B1B68DB6A9A42C5D2C7E7134B1B6840
:10257000DB6A03EB83039A000F4B9B58012B06D8B1
:1025800006E00F4A136801331360002400E00124C1
:102590000C4B1B6803B101242046F8BDA4010020A8
:1025A000CC010020F400002010010020F0000020E9
:1025B000D00100201402002018010020B0010020EA
:1025C000140100201802002038B5344B1B6843B9B1
:1025D0004FF0500383F31188BFF36F8FBFF34F8F1A
:1025E000FEE700F047FC2D4B1A68013A1A601B68A1
:1025F000002B4CD12A4B1B6833BB00244AE0294BEB
:10260000DB68DC6804F11800FFF758FA251D28463E
:10261000FFF754FAE36A012202FA03F12248026842
:102620000A43026003EB83039A0029461F481044C3
:10263000FFF71EFAE26A1E4B1B68DB6A9A4204D35C
:1026400001221C4B1A6000E00024164B1B68002B73
:10265000D5D10CB1FFF708FD174B1C6854B1FFF73B
:1026600021FF10B10122134B1A60013CF7D1002267
:10267000114B1A600F4B1B685BB14FF080520F4B30
:102680001A60BFF34F8FBFF36F8F012402E0002465
:1026900000E0002400F010FC204638BDA40100201A
:1026A000AC010020B4010020140200201801002019
:1026B000B0010020180200201401002004ED00E009
:1026C00010B5A8B10446104B1B6843B14FF050033E
:1026D00083F31188BFF36F8FBFF34F8FFEE7FFF7D0
:1026E000D9FE00212046FFF7ABFDFFF76DFF00E0AC
:1026F000002038B94FF08052044B1A60BFF34F8F5F
:10270000BFF36F8F10BD00BFA401002004ED00E0F7
:1027100010B51BE0FFF7BEFE0F4B1C68FFF754FF20
:10272000A4B100F0A7FB0C4BDB68DC68201DFFF7B1
:10273000C5F90A4A1368013B1360094A1368013B53
:10274000136000F0B9FB2046FFF7A8FC044B1B68A0
:10275000002BDFD110BD00BFFC000020AC01002029
:10276000A801002008B5FFF7D3FF064B1B68012B1B
:10277000F9D94FF08052044B1A60BFF34F8FBFF36B
:102780006F8FF0E71801002004ED00E01F4B1B687D
:102790001BB101221E4B1A60704700221C4B1A60AD
:1027A0001C4B1B68B3FA83F3DBB2C3F11F0303EBCB
:1027B00083018A0018498A5842B94FF0500383F3C5
:1027C0001188BFF36F8FBFF34F8FFEE730B4124D08
:1027D0009900CA189000284442685468446019441B
:1027E0008A0008322A44944205D1606803EB8301D1
:1027F0008A002A44506003EB83039A00064B1A4474
:102800005368DA68054B1A6030BC7047A401002099
:10281000180200201402002018010020B00100203E
:1028200040B94FF0500383F31188BFF36F8FBFF3AC
:102830004F8FFEE710B50C46044B19681831FFF7AF
:1028400023F901212046FFF7FBFC10BDB001002059
:1028500038B5C368DC6844B94FF0500383F311887E
:10286000BFF36F8FBFF34F8FFEE704F118052846C3
:10287000FFF724F9134B1B68A3B9251D2846FFF762
:102880001DF9E36A012202FA03F10F4802680A43C4
:10289000026003EB83039A0029460C481044FFF7BB
:1028A000E7F803E029460A48FFF7E2F8E26A094B35
:1028B0001B68DB6A9A4203D90120074B186038BDB8
:1028C000002038BDA40100201402002018010020BF
:1028D000B4010020B00100201802002040B94FF0E0
:1028E000500383F31188BFF36F8FBFF34F8FFEE761
:1028F000034A12680260034A12684260704700BFD0
:10290000F0000020CC01002038B540B94FF0500352
:1029100083F31188BFF36F8FBFF34F8FFEE7044639
:1029200041B94FF0500383F31188BFF36F8FBFF3AA
:102930004F8FFEE70D4600F09DFA114B19682A688B
:10294000B2F1FF3F13D020680E4B1B68984202D0B3
:10295000636899420DD26368C81A82420BD95B1A28
:1029600013442B602046FFF7B9FF002404E0002445
:1029700002E0012400E0012400F09EFA204638BD68
:10298000CC010020F00000200122014B1A607047AA
:1029900018020020054B1B6823B1054B1B681BB9AF
:1029A000022070470120704700207047F800002087
:1029B000A401002000284AD038B50246C36A244941
:1029C0000968C96A8B4241D28169002905DB204927
:1029D0000968C96AC1F107018161506903EB83038A
:1029E00099001C4B1944884201D1012300E00023C7
:1029F00043B31446151D2846FFF760F870B9E36A23
:102A000003EB83018A0013498A583AB9012202FA7A
:102A100003F311490A6822EA03030B600C4B1B689D
:102A2000DB6AE362012202FA03F10B4802680A43FF
:102A3000026003EB83039A00294606481044FFF71F
:102A400017F838BD024B1B68DB6AD36238BD70478C
:102A5000B0010020180100201402002000284BD0F3
:102A600038B50346274A1268904208D04FF0500309
:102A700083F31188BFF36F8FBFF34F8FFEE7826C34
:102A800042B94FF0500383F31188BFF36F8FBFF348
:102A90004F8FFEE7013A8264C06A596C88422DD09C
:102AA00072BB1C461D1D2846FFF708F870B9E26A84
:102AB00002EB82018B001449CB583BB9012303FA86
:102AC00002F212490B6823EA02030B60636CE362B3
:102AD000C3F10702A261012404FA03F00B490A685A
:102AE00002430A6003EB83039A0029460648104418
:102AF000FEF7BEFF204638BD00207047002038BDDD
:102B0000002038BDB0010020180100201402002070
:102B1000054B1B6823B1044B1A68936C0133936413
:102B2000014B1868704700BFB0010020842801D015
:102B3000033070470020704708B5FFF76DFC002098
:102B400008BD00BFF0B585B00F464468056806694A
:102B5000B0F90800FFF7EAFF03AB019300903B4692
:102B6000B2B229462046FFF7B7FB012801D10398EE
:102B700000E0002005B0F0BD08B508B90120FFE76E
:102B8000FFF79EFD002008BD08B5FFF703FF0128F1
:102B900001D000F0CFF908BD124A12F0070F07D09C
:102BA000D11D21F00701C1F5406313440A4601E03D
:102BB0004FF440630C480260002141601344083B1D
:102BC00023F007030948036059601960991A51609E
:102BD0001360074B1960074B19604FF00042064B1A
:102BE0001A6070472C0200202402002020020020DE
:102BF000300E00201C0200202C0E0020124B00E0A2
:102C000013461A688242FBD310B45C6819198842D3
:102C100003D14168214459601846446801198A4229
:102C20000CD10A4909688A4206D05268224442609F
:102C30001A681268026002E0016000E002609842D7
:102C400000D0186010BC7047240200202002002031
:102C500070B50446FFF71EFC394B1B680BB9FFF734
:102C60009BFF384B1B681C4253D194B1083414F0BD
:102C7000070F0ED024F00704083404F0070343B113
:102C80004FF0500383F31188BFF36F8FBFF34F8F63
:102C9000FEE7002C3FD02C4B1B689C423DD82B4BB1
:102CA0001D6801E02B4615466A68944202D92A68DD
:102CB000002AF7D1224A1268954230D01E680836A1
:102CC0002A681A606B681B1B102B10D9281910F08A
:102CD000070F08D04FF0500383F31188BFF36F8FB5
:102CE000BFF34F8FFEE743606C60FFF787FF6A68B2
:102CF00015490B689B1A0B60154909688B4201D274
:102D000013490B600F4B1B681A436A6000232B604A
:102D100006E0002604E0002602E0002600E000268F
:102D2000FFF752FC16F0070F08D04FF0500383F363
:102D30001188BFF36F8FBFF34F8FFEE7304670BD32
:102D4000200200202C0E00201C0200202402002063
:102D5000300E0020A0B338B50346A0F1080550F8A6
:102D6000042C1849096812EA010408D14FF05003F5
:102D700083F31188BFF36F8FBFF34F8FFEE750F8D7
:102D8000080C40B14FF0500383F31188BFF36F8FED
:102D9000BFF34F8FFEE794B188B91C4622EA0102C7
:102DA00043F8042CFFF776FB54F8043C064A1168FC
:102DB0000B4413602846FFF721FFFFF705FC38BDE1
:102DC000704700BF2C0E00201C0200200B4B1B681C
:102DD000B3F1FF3F08D04FF0500383F31188BFF3E6
:102DE0006F8FBFF34F8FFEE74FF0500383F31188CF
:102DF000BFF36F8FBFF34F8FFEE700BF0C000020C3
:102E000006480068006880F3088862B661B6BFF3C0
:102E10004F8FBFF36F8F00DF00BF000008ED00E0B1
:102E20004FF0807340F8043C21F0010140F8081C89
:102E3000034B40F80C3C40F8202C4038704700BF52
:102E4000CD2D000800000000000000000000000080
:102E5000074B19680868B0E8F00F80F30988BFF3E2
:102E60006F8F4FF0000080F311884EF00D0E704709
:102E7000B00100204FF0500383F31188BFF36F8F30
:102E8000BFF34F8F0A4A136801331360012B0DD132
:102E9000084B1B6813F0FF0F08D04FF0500383F36B
:102EA0001188BFF36F8FBFF34F8FFEE7704700BFEE
:102EB0000C00002004ED00E0094B1B6843B94FF003
:102EC000500383F31188BFF36F8FBFF34F8FFEE77B
:102ED000013B034A13600BB983F31188704700BFAD
:102EE0000C000020000000000000000000000000B6
:102EF000EFF30980BFF36F8F0D4B1A6820E9F00FD5
:102F000010602DE908404FF0500080F31188FFF762
:102F10003DFC4FF0000080F31188BDE808401968BF
:102F20000868B0E8F00F80F30988BFF36F8F70472F
:102F3000B001002008B54FF0500383F31188BFF3B0
:102F40006F8FBFF34F8FFFF7ADFA18B14FF080527C
:102F5000024B1A60002383F3118808BD04ED00E0E2
:102F6000064B1B68064AA2FB03239B09013B054A4B
:102F700013600722044B1A60704700BF080000204E
:102F8000D34D621014E000E010E000E000B583B023
:102F90001F4B1A78D2B20192FF221A701B78DBB253
:102FA0008DF803309DF8033003F05003194A137075
:102FB0000722194B1A6009E0174A1368013B136096
:102FC0009DF803305B00DBB28DF803309DF80330D1
:102FD00013F0800FF0D1104A13681B0203F4E06372
:102FE0001360019BDBB20A4A13700C4B1A6842F45F
:102FF00070021A601A6842F070421A60FFF7B0FF60
:103000000022074B1A60FFF7FBFEFFF7DFFE00BF51
:1030100000E400E0340E0020380E002020ED00E037
:103020000C00002008B50D480D4B03604FF482736F
:10303000436000238360C360036143614FF4007207
:1030400082613022C2610362436283620A23C362E7
:1030500000F042F808B1FDF7CFF808BD480F002096
:103060000030014010B586B000230293039304930F
:1030700005930268164B9A4227D103F560439A697B
:1030800042F480529A619A6902F480520092009A46
:103090009A6942F004029A619B6903F00403019368
:1030A000019BA02302930223039303230593094C5E
:1030B00002A92046FEF730F9402302930023039330
:1030C000049302A92046FEF727F906B010BD00BF01
:1030D000003001400008014000283CD010B50446F3
:1030E0000023836290F8513013F0FF0F01D1FFF7F6
:1030F000B9FF022384F851302268136823F040039B
:10310000136021686268A3681A43E3681A4323695D
:103110001A4363691A43A36903F400731343E26912
:103120001343226A1343A26A1A430A602168638B1D
:1031300003F00402636A13434B602368E26A1A6176
:103140002268D36923F40063D36100206065012302
:1031500084F8513010BD0120704700BF014B187832
:10316000704700BF3C0E002010B90022014B1A70BE
:10317000704700BF3C0E002010B582B0094B1B68A1
:103180001C6A009200230A4601461846A0470128FF
:1031900004D10222044B1A70002000E0012002B08A
:1031A00010BD00BF400E00203C0E002010B582B0C4
:1031B000084C2468246A009313460A4601460120FD
:1031C000A04718B90222044B1A7000E0012002B097
:1031D00010BD00BF400E00203C0E002008B5024B81
:1031E0001B685B6A984708BD400E002008B5024B7B
:1031F0001B689B6A984708BD400E002008B5024B2B
:103200001B68DB6A984708BD400E002010B5214BB3
:103210001C68214BE363A36B98474FF47A70FFF768
:103220004FFAA3690022642110469847012829D04B
:103230004FF400511948FEF761F9A3690022642197
:103240000220984701281FD04FF400511348FEF781
:1032500055F9A3690022642103209847012815D05D
:103260004FF400510D48FEF749F9E36943F69822FF
:103270000B490C48984701280AD001220A4B1A70C2
:10328000002010BD012010BD012010BD012010BD87
:10329000012010BD400E00206931000800100140DF
:1032A0009C440008A84400083C0E002008B500F02B
:1032B000B5FA0A4B18600A4A5A600A4A9A600A4AE2
:1032C000DA600A4A9A610A4A5A610A4A1A610A4A43
:1032D000DA610021094A1170184608BD400E00202D
:1032E0000D32000879310008AD310008FD310008C9
:1032F000ED310008DD3100085D3100083C0E002092
:1033000038B505460C4600234FF0FF3219460C48ED
:103310000068FEF7D9FD402C00D9402422462946FA
:10332000084800F00FFC084B1C700021074B197572
:103330000B460A4602480068FEF7E6FC204638BD08
:10334000A00E002028100020F0100020600E0020A9
:1033500070B51F4B186800F0E9FA032803D11C4B25
:10336000186800F0B7FA1A4B186800F0E1FA002864
:10337000EFD1174C206800F0CDFA206800F0DAFA9F
:103380000546206800F0D8FA0646206800F0D2FA18
:10339000104900F01DFC38B12E7000231A46294652
:1033A0000D480068FEF7B0FC094B186800F0C2FA3F
:1033B0000A4900F00DFC30B1054BDB6B002BC8D087
:1033C00000209847C5E731462846FFF799FFC0E738
:1033D000600E0020B0440008EC100020B844000843
:1033E00008B5064B03225A7418684FF6FF7308227B
:1033F00003490068FDF7C0F908BD00BF600E00205A
:10340000CC44000808B5074BDB7C082B08D10A2206
:10341000044BDA74044B1868FEF790FF002008BDD7
:10342000012008BD600E0020E810002070B590B0AB
:1034300006460D4640220021684600F08EFB1A4BDE
:103440005B7C022B24D1184B9B7C042B23D1164B85
:10345000DB7C0A2B22D000231A46694613480068F9
:10346000FEF732FD01281CD16C463A21684600F077
:10347000A1FB411C9DF800300C1BE4B21C1B224632
:10348000AC4200D32A46304600F05CFB204609E0FF
:103490006FF0070006E06FF0080003E06FF0060031
:1034A00000E0002010B070BD600E0020EC10002085
:1034B00070B506460D461446FDF7E0FB044406E0F1
:1034C00029463046FFF7B2FF002806DB05DCFDF792
:1034D000D5FB8442F4D86FF0090070BD08B54022D6
:1034E0000021054800F039FB0022044B1A7001222C
:1034F000034B1A7508BD00BF28100020F0100020F3
:10350000600E00202DE9F04F83B0834601911646EE
:103510009846DDF830A09DF83490012500274CE056
:10352000324C00234FF0FF3219462068FEF7CCFCE6
:10353000FFF7D4FF00231A4619462068FEF7E4FB84
:103540002B4B18684FF6FF73BDF8042059460068EE
:10355000FDF712F9FDF792FB00EB0A0427E0244B7C
:103560001B7D0BBB4FF0FF32194620480068FEF769
:10357000ABFC31461F4800F02BFB58B1B8F1000FEF
:1035800007D01D4B1A781B49404600F0DBFA002596
:1035900000E00025FFF7A2FF00231A461946134852
:1035A0000068FEF7B1FBE5B10A20FFF789F8FDF7E7
:1035B00065FB8442D3D80137FFB24F45B0D30B4CE3
:1035C00000234FF0FF3219462068FEF77DFCFFF71D
:1035D00085FF00231A4619462068FEF795FB012057
:1035E00000E0284603B0BDE8F08F00BFA00E002029
:1035F000600E002028100020F010002070B582B06E
:1036000006460C461E4D80220021284600F0A5FAF1
:1036100022461C49284600F0A9FA2846FCF7A6FDD8
:10362000194BDA6C93F85030019340F6B83300939D
:10363000002301462846FFF765FF012819D02246DE
:103640003146284600F07EFA0D232B55631C0A22D2
:10365000EA540123019340F6B833009300230B4A48
:1036600021462846FFF74EFF012805D14FF0FF30D5
:1036700003E04FF0FF3000E0204602B070BD00BF15
:1036800068100020D844000810000020E84400081A
:10369000F0B583B007460D4616461C468022002131
:1036A000204800F05AFA37B933462A461E491D48C9
:1036B00000F05CFA0EE034B933462A461B4919483B
:1036C00000F054FA06E0009433462A46184915489B
:1036D00000F04CFA02230193C82300930023154AFB
:1036E0000D211548FFF70EFF10B90522134B9A74F0
:1036F0000C4C2046FCF73AFD02230193089B0093F3
:1037000000230C4A01462046FFF7FCFE012803D1A6
:1037100005220A4B9A7403E00422084B9A74002095
:1037200003B0F0BD68100020F44400081445000800
:10373000344500085845000860450008600E002028
:1037400070B582B01646104D104C0B460246296BE0
:10375000204600F00BFA2046FCF708FD6A6B95F84E
:10376000383001930096002301462046FFF7CAFE39
:10377000012803D10322064B5A7403E00222044BB2
:103780005A74002002B070BD1000002068100020A4
:10379000600E00202DE9F04782B00F4616460D4D11
:1037A0004FEA400909EB0002930005EB030A55F8C4
:1037B00003804046FCF7DAFCDAF804209AF8083077
:1037C00001930097334601464046FFF79BFE02B047
:1037D000BDE8F087100000200C4BDB7C0A2B0FD1DA
:1037E00000B583B00823094AD374094A01920093B3
:1037F0000023402207490848FEF76EFD002001E043
:103800000120704703B05DF804FB00BF600E00208C
:10381000E8100020704500085133000838B5184DF5
:103820001849284600F048F8174C256003236374B4
:103830000520A0740A23E37401252575134BA361A9
:10384000134BE361134B2362134B2363134B6362EC
:10385000134BE362134BA362134B6363134BA363DA
:1038600000224021FEF72AFA114B18602846FEF785
:103870001FFB104B1860236B9847204638BD00BFD4
:10388000A00F0020000F0020600E002095370008D8
:103890004137000891360008D9370008FD35000887
:1038A000B13400082D34000805340008E133000865
:1038B000EC100020A00E002038B504460D468822EA
:1038C000002100F04AF9256001232371032363716D
:1038D00038BD00BF38B50446851D8022002128462A
:1038E00000F03BF9012323716379032B11D10223EB
:1038F000637123681B686FF010021A6023681A68EE
:10390000D36843F01003D360802229462068FCF777
:10391000A5FF38BD08B5012303714379022B04D1FB
:10392000032343710068FCF7EDFF08BD4079704741
:103930000079704706307047B0F88600704700BFC6
:1039400003681B686FF020021A6003681B681A681E
:1039500012F0100F14D06FF010021A6003681A688A
:103960001268A0F886201A685268A0F886205B6B5F
:103970001B685B68C3F18003A0F8863000230371E5
:10398000704700BF10B582B004460021ADF80610A4
:103990000B464FF0FF3212480068FEF795FA114BC4
:1039A0001B685B699847022802D0032808D00BE007
:1039B0000C4B1B68DB680DF106012046984703E0BD
:1039C000084B1B689B68984700231A461946044811
:1039D0000068FEF799F9BDF8060002B010BD00BFFF
:1039E000A80E0020A40E002038B505460C46FDF7B1
:1039F00045F9044407E02846FFF7C4FF034638B9F9
:103A00000A20FEF75DFEFDF739F98442F3D8002362
:103A1000184638BD08B50A4B1B68DB699847022871
:103A2000F9D14FF6FF710748FFF7DEFF83B2002B95
:103A3000F1D0034B1B681B6981B202489847EAE743
:103A4000AC0E0020FC10002000B583B0FFF72EFC68
:103A5000124B186000230193082200924022104963
:103A60001048FEF739FC0D4B1B68DB69984718B905
:103A70000A4B1B685B689847084B1B68DB699847D3
:103A80000128F0D1054B1B68DC6841F28833002225
:103A900042F230310448A047E5E700BFAC0E0020F9
:103AA000E8450008153A0008FC450008002103E03D
:103AB0000B4B5B58435004310A480B4B42189A4257
:103AC000F6D30A4A02E0002342F8043B084B9A422C
:103AD000F9D3FDF70BFF00F00FF8FCF779FB704707
:103AE0004846000800000020D4000020D400002038
:103AF000C0110020FEE700000E4B70B51E460E4CB4
:103B00000025E41AA410A54204D056F825309847A1
:103B10000135F8E700F084FC084B094C1E46E41A16
:103B2000A4100025A54204D056F825309847013549
:103B3000F8E770BD404600084046000840460008CF
:103B40004446000810B5431E0A44914204D011F8BF
:103B5000014B03F8014FF8E710BD034602449342BE
:103B600002D003F8011BFAE7704700000EB400B55D
:103B70004FF402719CB0ADF814106FF00041049145
:103B800007914FF6FF711DAB02900690084853F85D
:103B9000042BADF81610006802A9019300F08CF810
:103BA000029B00221A701CB05DF804EB03B0704752
:103BB000D0000020C9B2034610F8012B1AB191427F
:103BC000F9D11846704700290CBF184600207047ED
:103BD000F0B5037863B90B78002B18BF0020F0BD57
:103BE00015F8012F62B114F8017F30469742F7D0E3
:103BF0000346461C007810B14D1E5C1EF0E7F0BD78
:103C00001846F0BD2DE9F0478E6882469E420C466C
:103C1000914698463ED88A8912F4906F3AD025682A
:103C2000096902236F1A656905EB450595FBF3F5F4
:103C30007B1C43449D4238BF1D4653050FD5294682
:103C400000F040FB064698B13A462169FFF77AFF3B
:103C5000A38923F4906343F08003A38113E02A46F1
:103C600000F08EFB064670B92169504600F0DEFA7E
:103C70000C23CAF80030A3894FF0FF3043F0400313
:103C8000A381BDE8F08726613E4426604646656113
:103C9000ED1BA560464528BF46464946324620688A
:103CA00000F0A8FAA36800209B1BA36023681E44B1
:103CB0002660BDE8F08700002DE9F04F9DB003932A
:103CC0008B8980461C060D4616460DD50B695BB9DF
:103CD000402100F0F7FA2860286118B90C23C8F8D1
:103CE0000030CDE040236B610023099320238DF841
:103CF0002930DFF89CB130238DF82A3037463C4616
:103D000014F8013B1BB9B7EB060910D003E0252BD3
:103D1000F9D02746F3E74B46324629464046FFF79F
:103D200071FF013000F0A780099B4B4409933B7859
:103D3000002B00F0A08000234FF0FF320493079384
:103D4000059206938DF853301A93012605222178A7
:103D50004E4800F041FA671C049B38B14B4A3C4680
:103D6000801A06FA00F018430490EFE7D90644BF22
:103D700020228DF853201A0744BF2B228DF85320A0
:103D800022782A2A03D0079A00210A200BE0039AFE
:103D9000111D12680391002A10DA524243F002000A
:103DA000079204900BE027463B780134303B092B07
:103DB00003D800FB02320121F5E701B107923B78FD
:103DC0002E2B1ED17B782A2B0AD1039B02371A1D7A
:103DD0001B680392002BB8BF4FF0FF33059310E030
:103DE000002319460593781C0A2407463A780130C7
:103DF000303A092A03D804FB01210123F5E703B176
:103E0000059103223978224800F0E6F940B14023B9
:103E1000CBEB000003FA00F0049B01371843049039
:103E2000397806221B487E1C8DF8281000F0D4F942
:103E300088B1194B33B9039B073323F007030833C9
:103E4000039314E003AB00932A46144B04A94046A5
:103E5000AFF3008007E003AB00932A460F4B04A9A1
:103E6000404600F093F8B0F1FF3F824603D0099B33
:103E70005344099342E7AB895B0601D4099801E0FA
:103E80004FF0FF301DB0BDE8F08F00BF0C460008BA
:103E9000124600081646000800000000053C000815
:103EA0002DE9F04791461F460A698B680646934202
:103EB000B8BF1346C9F8003091F843200C46DDF82E
:103EC000208012B10133C9F800302368990642BF3F
:103ED000D9F800300233C9F80030256815F006051E
:103EE00010D104F1190A07E0012352463946304641
:103EF000C04701301AD00135E368D9F800209B1A79
:103F00009D42F1DB94F843302268003318BF01234F
:103F100092060FD5E118302081F843005A1C94F81E
:103F200045102244023382F8431003E04FF0FF3083
:103F3000BDE8F08704F1430239463046C0470130FE
:103F4000F4D02268D9F80050E36802F00602042A8F
:103F500008BF5D1B2269A3680CBF25EAE575002533
:103F60009342C4BF9B1AED184FF000091A344D4517
:103F700009D00123224639463046C0470130D5D00A
:103F800009F10109F3E70020BDE8F0872DE9F043CE
:103F900017460A7E85B06E2A984606460C460C9B4C
:103FA00001F1430E00F0AE8011D8632A22D009D867
:103FB000002A00F0BB80582A40F0CA8081F84520D2
:103FC000834955E0642A1ED0692A1CD0C0E0732AB8
:103FD00000F0B08009D86F2A2ED0702A40F0B88047
:103FE0000A6842F020020A603EE0752A24D0782A4E
:103FF0003AD0ADE01A6801F14205111D196013684D
:1040000084F84230A8E021681A6811F0800F02D0CD
:10401000111D196008E011F0400F02F10401196050
:1040200002D0B2F9003000E01368002B3CDA2D22F8
:104030005B4284F8432037E021681A6811F0800F52
:1040400002D0111D196007E011F0400F02F10401C8
:10405000196001D0138800E01368227E5C496F2A42
:1040600014BF0A2208221BE078225A4984F845200E
:104070002268186812F0800F00F104051D6003D15A
:10408000550601D5038800E00368D00744BF42F01D
:10409000200222601BB9226822F020022260102236
:1040A000002084F8430001E049490A226568002D98
:1040B000A56008DB206820F0040020602BB9002DEB
:1040C0007DD175460CE0002B79D07546B3FBF2F03C
:1040D00002FB1033CB5C05F8013D03460028F5D107
:1040E000082A0BD12368DA0708D5236962689A4247
:1040F000DEBF302305F8013C05F1FF35C5EB0E03AB
:1041000023612EE008681A6810F0800F496903D017
:10411000101D1860136808E010F0400F02F1040051
:104120001860136801D0198000E019600023236132
:10413000754616E01A68111D19601568002162683D
:10414000284600F049F808B1401B6060636804E04D
:1041500004F1420584F8422001232361002384F8FE
:104160004330CDF800803B4603AA21463046FFF796
:1041700097FE013002D14FF0FF3026E023692A4636
:1041800039463046C0470130F5D023689B0710D52B
:10419000002504F1190907E001234A463946304653
:1041A000C0470130E7D00135E368039A9B1A9D426E
:1041B000F2DBE068039B9842B8BF184605E00B7835
:1041C00004F1420584F842308AE705B0BDE8F08387
:1041D0001D4600082E46000810B5C9B202449042A0
:1041E000034605D01C7801308C42F8D1184610BD2A
:1041F000002010BD884210B501EB020301D8421E19
:104200000BE09842FBD28118D21AD34204D013F8A3
:10421000014D01F8014DF8E710BD994204D011F8A5
:10422000014B02F8014FF8E710BD000038B5054614
:10423000002944D051F8043C0C1F002BB8BFE418EF
:1042400000F0D4F81E4A1368114613B96360146075
:1042500030E0A3420DD92268A018834201BF18683C
:104260005B681218226063600C6023E0A24203D8EE
:1042700013465A68002AF9D118681918A1420BD1BF
:104280002168014458188242196013D1106852689D
:10429000014419605A600DE002D90C232B6009E03B
:1042A00021686018824201BF1068526809182160B5
:1042B00062605C602846BDE8384000F098B838BDC0
:1042C000B40E002070B5CD1C25F0030508350C2D6B
:1042D00038BF0C25002D064601DBA94202D90C236C
:1042E000336046E000F082F8234B1C681A462146F2
:1042F000A1B10B685B1B0ED40B2B03D90B60CC1840
:10430000CD501EE08C420BBF63684B681360636046
:1043100018BF0C4615E00C464968E9E7174C2368BE
:104320001BB9304600F052F820602946304600F0B4
:104330004DF8431C18D0C41C24F00304A0420DD136
:104340002560304600F053F804F10B00231D20F0E7
:104350000700C31A0ED05A42E25070BD211A3046EF
:1043600000F034F80130EBD10C233360304600F01C
:104370003EF8002070BD00BFB40E0020B00E00203B
:10438000F8B5074615460E4621B91146BDE8F84076
:10439000FFF798BF1AB9FFF749FF2846F8BD00F0AC
:1043A00027F885420ED929463846FFF78BFF044689
:1043B00050B131462A46FFF7C5FB31463846FFF774
:1043C00035FF01E03046F8BD2046F8BD38B5064C53
:1043D000002305460846236000F014F8431C02D170
:1043E000236803B12B6038BDBC11002070477047B3
:1043F00051F8040C0028BEBF091851F8043CC0183D
:1044000004387047044A05491368002B08BF0B465F
:104410001844106018467047B80E0020C0110020E4
:10442000F8B500BFF8BC08BC9E467047F8B500BFA1
:08443000F8BC08BC9E46704771
:1044380002030405060708090A0B0C0D0E0F1010DD
:104448000102000088440008011A0008000000006A
:1044580000000000800000000000000000000000D4
:104468000102030406070809000000000102030412
:10447800536D617274506172745F5461736B0000A4
:1044880064656661756C745461736B0049444C458E
:104498000000000031323334353637383900000037
:1044A8007669766F000000002B4950442C0000000C
:1044B8005749464920444953434F4E4E4543540DAE
:1044C8000A00000041542B5253540D0A000000000A
:1044D80041542B43495053454E443D25640D0A0031
:1044E80053454E44204F4B0D0A00000041542B43C6
:1044F800495053544152543D22544350222C2225B2
:1045080073222C256C640D0A0000000041542B43D3
:10451800495053544152543D22554450222C22258F
:1045280073222C256C640D0A0000000041542B43B3
:10453800495053544152543D22554450222C22256F
:1045480073222C256C642C256C642C300D0A000019
:104558000D0A4F4B0D0A000041542B434950434C60
:104568004F53450D0A0000004C697374656E65640D
:104578005F5461736B00000041540D0A0000000095
:10458800415445300D0A0000415445310D0A0000E0
:1045980041542B43574D4F44455F4355523D310DD0
:1045A8000A00000041542B43574A41505F4355527B
:1045B8003D222573222C222573220D0A00000000BB
:1045C80041542B43495053544152543D22257322A0
:1045D8002C222573222C25640D0A00000D0A3E00AA
:1045E8004C6F72615F50726F636573735F54617370
:1045F8006B00000034372E3130362E3132392E31EF
:1046080038350000232D302B2000686C4C0065667F
:10461800674546470030313233343536373839410B
:104628004243444546003031323334353637383921
:08463800616263646566000025
:044640003501000838
:044644001101000858
:10464800100000000100000000A24A04AAAAAAAAB9
:104658008045000858450008030000008845000808
:104668005845000803000000904500085845000818
:1046780003000000984500085845000803000000A2
:10468800AC4500085845000803000000C84500086C
:104698005845000803000000D8440008E445000815
:1046A80003000000D8440008E445000803000000A7
:1046B80000000000000000000000000000000000F2
:1046C80000000000000000000000000000000000E2
:1046D80000000000000000000000000000000000D2
:1046E80000000000000000000000000000000000C2
:1046F80000000000000000000000000000000000B2
:1047080000000000000000000000000000000000A1
:04471800700000200D
:0400000508003AAD08
:00000001FF
